{
	"contracts/FundMe.sol": {
		"FoundMe": {
			"abi": [
				{
					"inputs": [],
					"stateMutability": "nonpayable",
					"type": "constructor"
				},
				{
					"inputs": [],
					"name": "fund",
					"outputs": [],
					"stateMutability": "payable",
					"type": "function"
				},
				{
					"inputs": [
						{
							"internalType": "address",
							"name": "",
							"type": "address"
						}
					],
					"name": "funderToAmount",
					"outputs": [
						{
							"internalType": "uint256",
							"name": "",
							"type": "uint256"
						}
					],
					"stateMutability": "view",
					"type": "function"
				},
				{
					"inputs": [],
					"name": "getChainlinkDataFeedLatestAnswer",
					"outputs": [
						{
							"internalType": "int256",
							"name": "",
							"type": "int256"
						}
					],
					"stateMutability": "view",
					"type": "function"
				},
				{
					"inputs": [],
					"name": "test",
					"outputs": [],
					"stateMutability": "view",
					"type": "function"
				}
			],
			"devdoc": {
				"kind": "dev",
				"methods": {},
				"version": 1
			},
			"evm": {
				"assembly": "    /* \"contracts/FundMe.sol\":171:1624  contract FoundMe {... */\n  mstore(0x40, 0x80)\n    /* \"contracts/FundMe.sol\":323:335  100 * 10**18 */\n  0x056bc75e2d63100000\n    /* \"contracts/FundMe.sol\":299:335  uint256 MINIMUM_VALUE = 100 * 10**18 */\n  0x01\n  sstore\n    /* \"contracts/FundMe.sol\":394:523  constructor() {... */\n  callvalue\n  dup1\n  iszero\n  tag_1\n  jumpi\n  0x00\n  dup1\n  revert\ntag_1:\n  pop\n    /* \"contracts/FundMe.sol\":464:506  0x694AA1769357215DE4FAC081bf1f309aDC325306 */\n  0x694aa1769357215de4fac081bf1f309adc325306\n    /* \"contracts/FundMe.sol\":418:426  dataFeed */\n  0x02\n  0x00\n    /* \"contracts/FundMe.sol\":418:516  dataFeed = AggregatorV3Interface(... */\n  0x0100\n  exp\n  dup2\n  sload\n  dup2\n  0xffffffffffffffffffffffffffffffffffffffff\n  mul\n  not\n  and\n  swap1\n  dup4\n  0xffffffffffffffffffffffffffffffffffffffff\n  and\n  mul\n  or\n  swap1\n  sstore\n  pop\n    /* \"contracts/FundMe.sol\":171:1624  contract FoundMe {... */\n  dataSize(sub_0)\n  dup1\n  dataOffset(sub_0)\n  0x00\n  codecopy\n  0x00\n  return\nstop\n\nsub_0: assembly {\n        /* \"contracts/FundMe.sol\":171:1624  contract FoundMe {... */\n      mstore(0x40, 0x80)\n      jumpi(tag_1, lt(calldatasize, 0x04))\n      shr(0xe0, calldataload(0x00))\n      dup1\n      0x4407e1e8\n      eq\n      tag_2\n      jumpi\n      dup1\n      0xb60d4288\n      eq\n      tag_3\n      jumpi\n      dup1\n      0xbea4dfb5\n      eq\n      tag_4\n      jumpi\n      dup1\n      0xf8a8fd6d\n      eq\n      tag_5\n      jumpi\n    tag_1:\n      0x00\n      dup1\n      revert\n        /* \"contracts/FundMe.sol\":194:243  mapping(address => uint256) public funderToAmount */\n    tag_2:\n      callvalue\n      dup1\n      iszero\n      tag_6\n      jumpi\n      0x00\n      dup1\n      revert\n    tag_6:\n      pop\n      tag_7\n      0x04\n      dup1\n      calldatasize\n      sub\n      dup2\n      add\n      swap1\n      tag_8\n      swap2\n      swap1\n      tag_9\n      jump\t// in\n    tag_8:\n      tag_10\n      jump\t// in\n    tag_7:\n      mload(0x40)\n      tag_11\n      swap2\n      swap1\n      tag_12\n      jump\t// in\n    tag_11:\n      mload(0x40)\n      dup1\n      swap2\n      sub\n      swap1\n      return\n        /* \"contracts/FundMe.sol\":529:756  function fund() external payable {... */\n    tag_3:\n      tag_13\n      tag_14\n      jump\t// in\n    tag_13:\n      stop\n        /* \"contracts/FundMe.sol\":1016:1357  function getChainlinkDataFeedLatestAnswer() public view returns (int256) {... */\n    tag_4:\n      callvalue\n      dup1\n      iszero\n      tag_15\n      jumpi\n      0x00\n      dup1\n      revert\n    tag_15:\n      pop\n      tag_16\n      tag_17\n      jump\t// in\n    tag_16:\n      mload(0x40)\n      tag_18\n      swap2\n      swap1\n      tag_19\n      jump\t// in\n    tag_18:\n      mload(0x40)\n      dup1\n      swap2\n      sub\n      swap1\n      return\n        /* \"contracts/FundMe.sol\":1564:1622  function test() public view {... */\n    tag_5:\n      callvalue\n      dup1\n      iszero\n      tag_20\n      jumpi\n      0x00\n      dup1\n      revert\n    tag_20:\n      pop\n      tag_21\n      tag_22\n      jump\t// in\n    tag_21:\n      stop\n        /* \"contracts/FundMe.sol\":194:243  mapping(address => uint256) public funderToAmount */\n    tag_10:\n      mstore(0x20, 0x00)\n      dup1\n      0x00\n      mstore\n      keccak256(0x00, 0x40)\n      0x00\n      swap2\n      pop\n      swap1\n      pop\n      sload\n      dup2\n      jump\t// out\n        /* \"contracts/FundMe.sol\":529:756  function fund() external payable {... */\n    tag_14:\n        /* \"contracts/FundMe.sol\":610:623  MINIMUM_VALUE */\n      sload(0x01)\n        /* \"contracts/FundMe.sol\":580:606  convertEthToUsd(msg.value) */\n      tag_24\n        /* \"contracts/FundMe.sol\":596:605  msg.value */\n      callvalue\n        /* \"contracts/FundMe.sol\":580:595  convertEthToUsd */\n      tag_25\n        /* \"contracts/FundMe.sol\":580:606  convertEthToUsd(msg.value) */\n      jump\t// in\n    tag_24:\n        /* \"contracts/FundMe.sol\":580:623  convertEthToUsd(msg.value) >= MINIMUM_VALUE */\n      lt\n      iszero\n        /* \"contracts/FundMe.sol\":572:641  require(convertEthToUsd(msg.value) >= MINIMUM_VALUE, \"Send more ETH\") */\n      tag_26\n      jumpi\n      mload(0x40)\n      0x08c379a000000000000000000000000000000000000000000000000000000000\n      dup2\n      mstore\n      0x04\n      add\n      tag_27\n      swap1\n      tag_28\n      jump\t// in\n    tag_27:\n      mload(0x40)\n      dup1\n      swap2\n      sub\n      swap1\n      revert\n    tag_26:\n        /* \"contracts/FundMe.sol\":651:664  uint256 value */\n      0x00\n        /* \"contracts/FundMe.sol\":667:681  funderToAmount */\n      dup1\n        /* \"contracts/FundMe.sol\":667:693  funderToAmount[msg.sender] */\n      0x00\n        /* \"contracts/FundMe.sol\":682:692  msg.sender */\n      caller\n        /* \"contracts/FundMe.sol\":667:693  funderToAmount[msg.sender] */\n      0xffffffffffffffffffffffffffffffffffffffff\n      and\n      0xffffffffffffffffffffffffffffffffffffffff\n      and\n      dup2\n      mstore\n      0x20\n      add\n      swap1\n      dup2\n      mstore\n      0x20\n      add\n      0x00\n      keccak256\n      sload\n        /* \"contracts/FundMe.sol\":651:693  uint256 value = funderToAmount[msg.sender] */\n      swap1\n      pop\n        /* \"contracts/FundMe.sol\":740:749  msg.value */\n      callvalue\n        /* \"contracts/FundMe.sol\":732:737  value */\n      dup2\n        /* \"contracts/FundMe.sol\":732:749  value + msg.value */\n      tag_29\n      swap2\n      swap1\n      tag_30\n      jump\t// in\n    tag_29:\n        /* \"contracts/FundMe.sol\":703:717  funderToAmount */\n      0x00\n        /* \"contracts/FundMe.sol\":703:729  funderToAmount[msg.sender] */\n      dup1\n        /* \"contracts/FundMe.sol\":718:728  msg.sender */\n      caller\n        /* \"contracts/FundMe.sol\":703:729  funderToAmount[msg.sender] */\n      0xffffffffffffffffffffffffffffffffffffffff\n      and\n      0xffffffffffffffffffffffffffffffffffffffff\n      and\n      dup2\n      mstore\n      0x20\n      add\n      swap1\n      dup2\n      mstore\n      0x20\n      add\n      0x00\n      keccak256\n        /* \"contracts/FundMe.sol\":703:749  funderToAmount[msg.sender] = value + msg.value */\n      dup2\n      swap1\n      sstore\n      pop\n        /* \"contracts/FundMe.sol\":562:756  {... */\n      pop\n        /* \"contracts/FundMe.sol\":529:756  function fund() external payable {... */\n      jump\t// out\n        /* \"contracts/FundMe.sol\":1016:1357  function getChainlinkDataFeedLatestAnswer() public view returns (int256) {... */\n    tag_17:\n        /* \"contracts/FundMe.sol\":1081:1087  int256 */\n      0x00\n        /* \"contracts/FundMe.sol\":1174:1184  int answer */\n      dup1\n        /* \"contracts/FundMe.sol\":1301:1309  dataFeed */\n      0x02\n      0x00\n      swap1\n      sload\n      swap1\n      0x0100\n      exp\n      swap1\n      div\n      0xffffffffffffffffffffffffffffffffffffffff\n      and\n        /* \"contracts/FundMe.sol\":1301:1325  dataFeed.latestRoundData */\n      0xffffffffffffffffffffffffffffffffffffffff\n      and\n      0xfeaf968c\n        /* \"contracts/FundMe.sol\":1301:1327  dataFeed.latestRoundData() */\n      mload(0x40)\n      dup2\n      0xffffffff\n      and\n      0xe0\n      shl\n      dup2\n      mstore\n      0x04\n      add\n      0xa0\n      mload(0x40)\n      dup1\n      dup4\n      sub\n      dup2\n      dup7\n      gas\n      staticcall\n      iszero\n      dup1\n      iszero\n      tag_33\n      jumpi\n      returndatasize\n      0x00\n      dup1\n      returndatacopy\n      revert(0x00, returndatasize)\n    tag_33:\n      pop\n      pop\n      pop\n      pop\n      mload(0x40)\n      returndatasize\n      not(0x1f)\n      0x1f\n      dup3\n      add\n      and\n      dup3\n      add\n      dup1\n      0x40\n      mstore\n      pop\n      dup2\n      add\n      swap1\n      tag_34\n      swap2\n      swap1\n      tag_35\n      jump\t// in\n    tag_34:\n        /* \"contracts/FundMe.sol\":1126:1327  (... */\n      pop\n      pop\n      pop\n      swap2\n      pop\n      pop\n        /* \"contracts/FundMe.sol\":1344:1350  answer */\n      dup1\n        /* \"contracts/FundMe.sol\":1337:1350  return answer */\n      swap2\n      pop\n      pop\n        /* \"contracts/FundMe.sol\":1016:1357  function getChainlinkDataFeedLatestAnswer() public view returns (int256) {... */\n      swap1\n      jump\t// out\n        /* \"contracts/FundMe.sol\":1564:1622  function test() public view {... */\n    tag_22:\n        /* \"contracts/FundMe.sol\":1602:1611  uint256 a */\n      0x00\n        /* \"contracts/FundMe.sol\":1614:1615  1 */\n      0x01\n        /* \"contracts/FundMe.sol\":1602:1615  uint256 a = 1 */\n      swap1\n      pop\n        /* \"contracts/FundMe.sol\":1592:1622  {... */\n      pop\n        /* \"contracts/FundMe.sol\":1564:1622  function test() public view {... */\n      jump\t// out\n        /* \"contracts/FundMe.sol\":1363:1559  function convertEthToUsd(uint256 ethMount) internal view returns (uint256) {... */\n    tag_25:\n        /* \"contracts/FundMe.sol\":1429:1436  uint256 */\n      0x00\n        /* \"contracts/FundMe.sol\":1448:1462  uint256 answer */\n      dup1\n        /* \"contracts/FundMe.sol\":1473:1507  getChainlinkDataFeedLatestAnswer() */\n      tag_38\n        /* \"contracts/FundMe.sol\":1473:1505  getChainlinkDataFeedLatestAnswer */\n      tag_17\n        /* \"contracts/FundMe.sol\":1473:1507  getChainlinkDataFeedLatestAnswer() */\n      jump\t// in\n    tag_38:\n        /* \"contracts/FundMe.sol\":1448:1508  uint256 answer = uint256(getChainlinkDataFeedLatestAnswer()) */\n      swap1\n      pop\n        /* \"contracts/FundMe.sol\":1547:1552  10**8 */\n      0x05f5e100\n        /* \"contracts/FundMe.sol\":1537:1543  answer */\n      dup2\n        /* \"contracts/FundMe.sol\":1526:1534  ethMount */\n      dup5\n        /* \"contracts/FundMe.sol\":1526:1543  ethMount * answer */\n      tag_39\n      swap2\n      swap1\n      tag_40\n      jump\t// in\n    tag_39:\n        /* \"contracts/FundMe.sol\":1525:1552  (ethMount * answer) / 10**8 */\n      tag_41\n      swap2\n      swap1\n      tag_42\n      jump\t// in\n    tag_41:\n        /* \"contracts/FundMe.sol\":1518:1552  return (ethMount * answer) / 10**8 */\n      swap2\n      pop\n      pop\n        /* \"contracts/FundMe.sol\":1363:1559  function convertEthToUsd(uint256 ethMount) internal view returns (uint256) {... */\n      swap2\n      swap1\n      pop\n      jump\t// out\n        /* \"#utility.yul\":88:205   */\n    tag_44:\n        /* \"#utility.yul\":197:198   */\n      0x00\n        /* \"#utility.yul\":194:195   */\n      dup1\n        /* \"#utility.yul\":187:199   */\n      revert\n        /* \"#utility.yul\":334:460   */\n    tag_46:\n        /* \"#utility.yul\":371:378   */\n      0x00\n        /* \"#utility.yul\":411:453   */\n      0xffffffffffffffffffffffffffffffffffffffff\n        /* \"#utility.yul\":404:409   */\n      dup3\n        /* \"#utility.yul\":400:454   */\n      and\n        /* \"#utility.yul\":389:454   */\n      swap1\n      pop\n        /* \"#utility.yul\":334:460   */\n      swap2\n      swap1\n      pop\n      jump\t// out\n        /* \"#utility.yul\":466:562   */\n    tag_47:\n        /* \"#utility.yul\":503:510   */\n      0x00\n        /* \"#utility.yul\":532:556   */\n      tag_72\n        /* \"#utility.yul\":550:555   */\n      dup3\n        /* \"#utility.yul\":532:556   */\n      tag_46\n      jump\t// in\n    tag_72:\n        /* \"#utility.yul\":521:556   */\n      swap1\n      pop\n        /* \"#utility.yul\":466:562   */\n      swap2\n      swap1\n      pop\n      jump\t// out\n        /* \"#utility.yul\":568:690   */\n    tag_48:\n        /* \"#utility.yul\":641:665   */\n      tag_74\n        /* \"#utility.yul\":659:664   */\n      dup2\n        /* \"#utility.yul\":641:665   */\n      tag_47\n      jump\t// in\n    tag_74:\n        /* \"#utility.yul\":634:639   */\n      dup2\n        /* \"#utility.yul\":631:666   */\n      eq\n        /* \"#utility.yul\":621:684   */\n      tag_75\n      jumpi\n        /* \"#utility.yul\":680:681   */\n      0x00\n        /* \"#utility.yul\":677:678   */\n      dup1\n        /* \"#utility.yul\":670:682   */\n      revert\n        /* \"#utility.yul\":621:684   */\n    tag_75:\n        /* \"#utility.yul\":568:690   */\n      pop\n      jump\t// out\n        /* \"#utility.yul\":696:835   */\n    tag_49:\n        /* \"#utility.yul\":742:747   */\n      0x00\n        /* \"#utility.yul\":780:786   */\n      dup2\n        /* \"#utility.yul\":767:787   */\n      calldataload\n        /* \"#utility.yul\":758:787   */\n      swap1\n      pop\n        /* \"#utility.yul\":796:829   */\n      tag_77\n        /* \"#utility.yul\":823:828   */\n      dup2\n        /* \"#utility.yul\":796:829   */\n      tag_48\n      jump\t// in\n    tag_77:\n        /* \"#utility.yul\":696:835   */\n      swap3\n      swap2\n      pop\n      pop\n      jump\t// out\n        /* \"#utility.yul\":841:1170   */\n    tag_9:\n        /* \"#utility.yul\":900:906   */\n      0x00\n        /* \"#utility.yul\":949:951   */\n      0x20\n        /* \"#utility.yul\":937:946   */\n      dup3\n        /* \"#utility.yul\":928:935   */\n      dup5\n        /* \"#utility.yul\":924:947   */\n      sub\n        /* \"#utility.yul\":920:952   */\n      slt\n        /* \"#utility.yul\":917:1036   */\n      iszero\n      tag_79\n      jumpi\n        /* \"#utility.yul\":955:1034   */\n      tag_80\n      tag_44\n      jump\t// in\n    tag_80:\n        /* \"#utility.yul\":917:1036   */\n    tag_79:\n        /* \"#utility.yul\":1075:1076   */\n      0x00\n        /* \"#utility.yul\":1100:1153   */\n      tag_81\n        /* \"#utility.yul\":1145:1152   */\n      dup5\n        /* \"#utility.yul\":1136:1142   */\n      dup3\n        /* \"#utility.yul\":1125:1134   */\n      dup6\n        /* \"#utility.yul\":1121:1143   */\n      add\n        /* \"#utility.yul\":1100:1153   */\n      tag_49\n      jump\t// in\n    tag_81:\n        /* \"#utility.yul\":1090:1153   */\n      swap2\n      pop\n        /* \"#utility.yul\":1046:1163   */\n      pop\n        /* \"#utility.yul\":841:1170   */\n      swap3\n      swap2\n      pop\n      pop\n      jump\t// out\n        /* \"#utility.yul\":1176:1253   */\n    tag_50:\n        /* \"#utility.yul\":1213:1220   */\n      0x00\n        /* \"#utility.yul\":1242:1247   */\n      dup2\n        /* \"#utility.yul\":1231:1247   */\n      swap1\n      pop\n        /* \"#utility.yul\":1176:1253   */\n      swap2\n      swap1\n      pop\n      jump\t// out\n        /* \"#utility.yul\":1259:1377   */\n    tag_51:\n        /* \"#utility.yul\":1346:1370   */\n      tag_84\n        /* \"#utility.yul\":1364:1369   */\n      dup2\n        /* \"#utility.yul\":1346:1370   */\n      tag_50\n      jump\t// in\n    tag_84:\n        /* \"#utility.yul\":1341:1344   */\n      dup3\n        /* \"#utility.yul\":1334:1371   */\n      mstore\n        /* \"#utility.yul\":1259:1377   */\n      pop\n      pop\n      jump\t// out\n        /* \"#utility.yul\":1383:1605   */\n    tag_12:\n        /* \"#utility.yul\":1476:1480   */\n      0x00\n        /* \"#utility.yul\":1514:1516   */\n      0x20\n        /* \"#utility.yul\":1503:1512   */\n      dup3\n        /* \"#utility.yul\":1499:1517   */\n      add\n        /* \"#utility.yul\":1491:1517   */\n      swap1\n      pop\n        /* \"#utility.yul\":1527:1598   */\n      tag_86\n        /* \"#utility.yul\":1595:1596   */\n      0x00\n        /* \"#utility.yul\":1584:1593   */\n      dup4\n        /* \"#utility.yul\":1580:1597   */\n      add\n        /* \"#utility.yul\":1571:1577   */\n      dup5\n        /* \"#utility.yul\":1527:1598   */\n      tag_51\n      jump\t// in\n    tag_86:\n        /* \"#utility.yul\":1383:1605   */\n      swap3\n      swap2\n      pop\n      pop\n      jump\t// out\n        /* \"#utility.yul\":1611:1687   */\n    tag_52:\n        /* \"#utility.yul\":1647:1654   */\n      0x00\n        /* \"#utility.yul\":1676:1681   */\n      dup2\n        /* \"#utility.yul\":1665:1681   */\n      swap1\n      pop\n        /* \"#utility.yul\":1611:1687   */\n      swap2\n      swap1\n      pop\n      jump\t// out\n        /* \"#utility.yul\":1693:1808   */\n    tag_53:\n        /* \"#utility.yul\":1778:1801   */\n      tag_89\n        /* \"#utility.yul\":1795:1800   */\n      dup2\n        /* \"#utility.yul\":1778:1801   */\n      tag_52\n      jump\t// in\n    tag_89:\n        /* \"#utility.yul\":1773:1776   */\n      dup3\n        /* \"#utility.yul\":1766:1802   */\n      mstore\n        /* \"#utility.yul\":1693:1808   */\n      pop\n      pop\n      jump\t// out\n        /* \"#utility.yul\":1814:2032   */\n    tag_19:\n        /* \"#utility.yul\":1905:1909   */\n      0x00\n        /* \"#utility.yul\":1943:1945   */\n      0x20\n        /* \"#utility.yul\":1932:1941   */\n      dup3\n        /* \"#utility.yul\":1928:1946   */\n      add\n        /* \"#utility.yul\":1920:1946   */\n      swap1\n      pop\n        /* \"#utility.yul\":1956:2025   */\n      tag_91\n        /* \"#utility.yul\":2022:2023   */\n      0x00\n        /* \"#utility.yul\":2011:2020   */\n      dup4\n        /* \"#utility.yul\":2007:2024   */\n      add\n        /* \"#utility.yul\":1998:2004   */\n      dup5\n        /* \"#utility.yul\":1956:2025   */\n      tag_53\n      jump\t// in\n    tag_91:\n        /* \"#utility.yul\":1814:2032   */\n      swap3\n      swap2\n      pop\n      pop\n      jump\t// out\n        /* \"#utility.yul\":2038:2207   */\n    tag_54:\n        /* \"#utility.yul\":2122:2133   */\n      0x00\n        /* \"#utility.yul\":2156:2162   */\n      dup3\n        /* \"#utility.yul\":2151:2154   */\n      dup3\n        /* \"#utility.yul\":2144:2163   */\n      mstore\n        /* \"#utility.yul\":2196:2200   */\n      0x20\n        /* \"#utility.yul\":2191:2194   */\n      dup3\n        /* \"#utility.yul\":2187:2201   */\n      add\n        /* \"#utility.yul\":2172:2201   */\n      swap1\n      pop\n        /* \"#utility.yul\":2038:2207   */\n      swap3\n      swap2\n      pop\n      pop\n      jump\t// out\n        /* \"#utility.yul\":2213:2376   */\n    tag_55:\n        /* \"#utility.yul\":2353:2368   */\n      0x53656e64206d6f72652045544800000000000000000000000000000000000000\n        /* \"#utility.yul\":2349:2350   */\n      0x00\n        /* \"#utility.yul\":2341:2347   */\n      dup3\n        /* \"#utility.yul\":2337:2351   */\n      add\n        /* \"#utility.yul\":2330:2369   */\n      mstore\n        /* \"#utility.yul\":2213:2376   */\n      pop\n      jump\t// out\n        /* \"#utility.yul\":2382:2748   */\n    tag_56:\n        /* \"#utility.yul\":2524:2527   */\n      0x00\n        /* \"#utility.yul\":2545:2612   */\n      tag_95\n        /* \"#utility.yul\":2609:2611   */\n      0x0d\n        /* \"#utility.yul\":2604:2607   */\n      dup4\n        /* \"#utility.yul\":2545:2612   */\n      tag_54\n      jump\t// in\n    tag_95:\n        /* \"#utility.yul\":2538:2612   */\n      swap2\n      pop\n        /* \"#utility.yul\":2621:2714   */\n      tag_96\n        /* \"#utility.yul\":2710:2713   */\n      dup3\n        /* \"#utility.yul\":2621:2714   */\n      tag_55\n      jump\t// in\n    tag_96:\n        /* \"#utility.yul\":2739:2741   */\n      0x20\n        /* \"#utility.yul\":2734:2737   */\n      dup3\n        /* \"#utility.yul\":2730:2742   */\n      add\n        /* \"#utility.yul\":2723:2742   */\n      swap1\n      pop\n        /* \"#utility.yul\":2382:2748   */\n      swap2\n      swap1\n      pop\n      jump\t// out\n        /* \"#utility.yul\":2754:3173   */\n    tag_28:\n        /* \"#utility.yul\":2920:2924   */\n      0x00\n        /* \"#utility.yul\":2958:2960   */\n      0x20\n        /* \"#utility.yul\":2947:2956   */\n      dup3\n        /* \"#utility.yul\":2943:2961   */\n      add\n        /* \"#utility.yul\":2935:2961   */\n      swap1\n      pop\n        /* \"#utility.yul\":3007:3016   */\n      dup2\n        /* \"#utility.yul\":3001:3005   */\n      dup2\n        /* \"#utility.yul\":2997:3017   */\n      sub\n        /* \"#utility.yul\":2993:2994   */\n      0x00\n        /* \"#utility.yul\":2982:2991   */\n      dup4\n        /* \"#utility.yul\":2978:2995   */\n      add\n        /* \"#utility.yul\":2971:3018   */\n      mstore\n        /* \"#utility.yul\":3035:3166   */\n      tag_98\n        /* \"#utility.yul\":3161:3165   */\n      dup2\n        /* \"#utility.yul\":3035:3166   */\n      tag_56\n      jump\t// in\n    tag_98:\n        /* \"#utility.yul\":3027:3166   */\n      swap1\n      pop\n        /* \"#utility.yul\":2754:3173   */\n      swap2\n      swap1\n      pop\n      jump\t// out\n        /* \"#utility.yul\":3179:3359   */\n    tag_57:\n        /* \"#utility.yul\":3227:3304   */\n      0x4e487b7100000000000000000000000000000000000000000000000000000000\n        /* \"#utility.yul\":3224:3225   */\n      0x00\n        /* \"#utility.yul\":3217:3305   */\n      mstore\n        /* \"#utility.yul\":3324:3328   */\n      0x11\n        /* \"#utility.yul\":3321:3322   */\n      0x04\n        /* \"#utility.yul\":3314:3329   */\n      mstore\n        /* \"#utility.yul\":3348:3352   */\n      0x24\n        /* \"#utility.yul\":3345:3346   */\n      0x00\n        /* \"#utility.yul\":3338:3353   */\n      revert\n        /* \"#utility.yul\":3365:3556   */\n    tag_30:\n        /* \"#utility.yul\":3405:3408   */\n      0x00\n        /* \"#utility.yul\":3424:3444   */\n      tag_101\n        /* \"#utility.yul\":3442:3443   */\n      dup3\n        /* \"#utility.yul\":3424:3444   */\n      tag_50\n      jump\t// in\n    tag_101:\n        /* \"#utility.yul\":3419:3444   */\n      swap2\n      pop\n        /* \"#utility.yul\":3458:3478   */\n      tag_102\n        /* \"#utility.yul\":3476:3477   */\n      dup4\n        /* \"#utility.yul\":3458:3478   */\n      tag_50\n      jump\t// in\n    tag_102:\n        /* \"#utility.yul\":3453:3478   */\n      swap3\n      pop\n        /* \"#utility.yul\":3501:3502   */\n      dup3\n        /* \"#utility.yul\":3498:3499   */\n      dup3\n        /* \"#utility.yul\":3494:3503   */\n      add\n        /* \"#utility.yul\":3487:3503   */\n      swap1\n      pop\n        /* \"#utility.yul\":3522:3525   */\n      dup1\n        /* \"#utility.yul\":3519:3520   */\n      dup3\n        /* \"#utility.yul\":3516:3526   */\n      gt\n        /* \"#utility.yul\":3513:3549   */\n      iszero\n      tag_103\n      jumpi\n        /* \"#utility.yul\":3529:3547   */\n      tag_104\n      tag_57\n      jump\t// in\n    tag_104:\n        /* \"#utility.yul\":3513:3549   */\n    tag_103:\n        /* \"#utility.yul\":3365:3556   */\n      swap3\n      swap2\n      pop\n      pop\n      jump\t// out\n        /* \"#utility.yul\":3562:3667   */\n    tag_58:\n        /* \"#utility.yul\":3598:3605   */\n      0x00\n        /* \"#utility.yul\":3638:3660   */\n      0xffffffffffffffffffff\n        /* \"#utility.yul\":3631:3636   */\n      dup3\n        /* \"#utility.yul\":3627:3661   */\n      and\n        /* \"#utility.yul\":3616:3661   */\n      swap1\n      pop\n        /* \"#utility.yul\":3562:3667   */\n      swap2\n      swap1\n      pop\n      jump\t// out\n        /* \"#utility.yul\":3673:3793   */\n    tag_59:\n        /* \"#utility.yul\":3745:3768   */\n      tag_107\n        /* \"#utility.yul\":3762:3767   */\n      dup2\n        /* \"#utility.yul\":3745:3768   */\n      tag_58\n      jump\t// in\n    tag_107:\n        /* \"#utility.yul\":3738:3743   */\n      dup2\n        /* \"#utility.yul\":3735:3769   */\n      eq\n        /* \"#utility.yul\":3725:3787   */\n      tag_108\n      jumpi\n        /* \"#utility.yul\":3783:3784   */\n      0x00\n        /* \"#utility.yul\":3780:3781   */\n      dup1\n        /* \"#utility.yul\":3773:3785   */\n      revert\n        /* \"#utility.yul\":3725:3787   */\n    tag_108:\n        /* \"#utility.yul\":3673:3793   */\n      pop\n      jump\t// out\n        /* \"#utility.yul\":3799:3940   */\n    tag_60:\n        /* \"#utility.yul\":3855:3860   */\n      0x00\n        /* \"#utility.yul\":3886:3892   */\n      dup2\n        /* \"#utility.yul\":3880:3893   */\n      mload\n        /* \"#utility.yul\":3871:3893   */\n      swap1\n      pop\n        /* \"#utility.yul\":3902:3934   */\n      tag_110\n        /* \"#utility.yul\":3928:3933   */\n      dup2\n        /* \"#utility.yul\":3902:3934   */\n      tag_59\n      jump\t// in\n    tag_110:\n        /* \"#utility.yul\":3799:3940   */\n      swap3\n      swap2\n      pop\n      pop\n      jump\t// out\n        /* \"#utility.yul\":3946:4066   */\n    tag_61:\n        /* \"#utility.yul\":4018:4041   */\n      tag_112\n        /* \"#utility.yul\":4035:4040   */\n      dup2\n        /* \"#utility.yul\":4018:4041   */\n      tag_52\n      jump\t// in\n    tag_112:\n        /* \"#utility.yul\":4011:4016   */\n      dup2\n        /* \"#utility.yul\":4008:4042   */\n      eq\n        /* \"#utility.yul\":3998:4060   */\n      tag_113\n      jumpi\n        /* \"#utility.yul\":4056:4057   */\n      0x00\n        /* \"#utility.yul\":4053:4054   */\n      dup1\n        /* \"#utility.yul\":4046:4058   */\n      revert\n        /* \"#utility.yul\":3998:4060   */\n    tag_113:\n        /* \"#utility.yul\":3946:4066   */\n      pop\n      jump\t// out\n        /* \"#utility.yul\":4072:4213   */\n    tag_62:\n        /* \"#utility.yul\":4128:4133   */\n      0x00\n        /* \"#utility.yul\":4159:4165   */\n      dup2\n        /* \"#utility.yul\":4153:4166   */\n      mload\n        /* \"#utility.yul\":4144:4166   */\n      swap1\n      pop\n        /* \"#utility.yul\":4175:4207   */\n      tag_115\n        /* \"#utility.yul\":4201:4206   */\n      dup2\n        /* \"#utility.yul\":4175:4207   */\n      tag_61\n      jump\t// in\n    tag_115:\n        /* \"#utility.yul\":4072:4213   */\n      swap3\n      swap2\n      pop\n      pop\n      jump\t// out\n        /* \"#utility.yul\":4219:4341   */\n    tag_63:\n        /* \"#utility.yul\":4292:4316   */\n      tag_117\n        /* \"#utility.yul\":4310:4315   */\n      dup2\n        /* \"#utility.yul\":4292:4316   */\n      tag_50\n      jump\t// in\n    tag_117:\n        /* \"#utility.yul\":4285:4290   */\n      dup2\n        /* \"#utility.yul\":4282:4317   */\n      eq\n        /* \"#utility.yul\":4272:4335   */\n      tag_118\n      jumpi\n        /* \"#utility.yul\":4331:4332   */\n      0x00\n        /* \"#utility.yul\":4328:4329   */\n      dup1\n        /* \"#utility.yul\":4321:4333   */\n      revert\n        /* \"#utility.yul\":4272:4335   */\n    tag_118:\n        /* \"#utility.yul\":4219:4341   */\n      pop\n      jump\t// out\n        /* \"#utility.yul\":4347:4490   */\n    tag_64:\n        /* \"#utility.yul\":4404:4409   */\n      0x00\n        /* \"#utility.yul\":4435:4441   */\n      dup2\n        /* \"#utility.yul\":4429:4442   */\n      mload\n        /* \"#utility.yul\":4420:4442   */\n      swap1\n      pop\n        /* \"#utility.yul\":4451:4484   */\n      tag_120\n        /* \"#utility.yul\":4478:4483   */\n      dup2\n        /* \"#utility.yul\":4451:4484   */\n      tag_63\n      jump\t// in\n    tag_120:\n        /* \"#utility.yul\":4347:4490   */\n      swap3\n      swap2\n      pop\n      pop\n      jump\t// out\n        /* \"#utility.yul\":4496:5467   */\n    tag_35:\n        /* \"#utility.yul\":4599:4605   */\n      0x00\n        /* \"#utility.yul\":4607:4613   */\n      dup1\n        /* \"#utility.yul\":4615:4621   */\n      0x00\n        /* \"#utility.yul\":4623:4629   */\n      dup1\n        /* \"#utility.yul\":4631:4637   */\n      0x00\n        /* \"#utility.yul\":4680:4683   */\n      0xa0\n        /* \"#utility.yul\":4668:4677   */\n      dup7\n        /* \"#utility.yul\":4659:4666   */\n      dup9\n        /* \"#utility.yul\":4655:4678   */\n      sub\n        /* \"#utility.yul\":4651:4684   */\n      slt\n        /* \"#utility.yul\":4648:4768   */\n      iszero\n      tag_122\n      jumpi\n        /* \"#utility.yul\":4687:4766   */\n      tag_123\n      tag_44\n      jump\t// in\n    tag_123:\n        /* \"#utility.yul\":4648:4768   */\n    tag_122:\n        /* \"#utility.yul\":4807:4808   */\n      0x00\n        /* \"#utility.yul\":4832:4895   */\n      tag_124\n        /* \"#utility.yul\":4887:4894   */\n      dup9\n        /* \"#utility.yul\":4878:4884   */\n      dup3\n        /* \"#utility.yul\":4867:4876   */\n      dup10\n        /* \"#utility.yul\":4863:4885   */\n      add\n        /* \"#utility.yul\":4832:4895   */\n      tag_60\n      jump\t// in\n    tag_124:\n        /* \"#utility.yul\":4822:4895   */\n      swap6\n      pop\n        /* \"#utility.yul\":4778:4905   */\n      pop\n        /* \"#utility.yul\":4944:4946   */\n      0x20\n        /* \"#utility.yul\":4970:5033   */\n      tag_125\n        /* \"#utility.yul\":5025:5032   */\n      dup9\n        /* \"#utility.yul\":5016:5022   */\n      dup3\n        /* \"#utility.yul\":5005:5014   */\n      dup10\n        /* \"#utility.yul\":5001:5023   */\n      add\n        /* \"#utility.yul\":4970:5033   */\n      tag_62\n      jump\t// in\n    tag_125:\n        /* \"#utility.yul\":4960:5033   */\n      swap5\n      pop\n        /* \"#utility.yul\":4915:5043   */\n      pop\n        /* \"#utility.yul\":5082:5084   */\n      0x40\n        /* \"#utility.yul\":5108:5172   */\n      tag_126\n        /* \"#utility.yul\":5164:5171   */\n      dup9\n        /* \"#utility.yul\":5155:5161   */\n      dup3\n        /* \"#utility.yul\":5144:5153   */\n      dup10\n        /* \"#utility.yul\":5140:5162   */\n      add\n        /* \"#utility.yul\":5108:5172   */\n      tag_64\n      jump\t// in\n    tag_126:\n        /* \"#utility.yul\":5098:5172   */\n      swap4\n      pop\n        /* \"#utility.yul\":5053:5182   */\n      pop\n        /* \"#utility.yul\":5221:5223   */\n      0x60\n        /* \"#utility.yul\":5247:5311   */\n      tag_127\n        /* \"#utility.yul\":5303:5310   */\n      dup9\n        /* \"#utility.yul\":5294:5300   */\n      dup3\n        /* \"#utility.yul\":5283:5292   */\n      dup10\n        /* \"#utility.yul\":5279:5301   */\n      add\n        /* \"#utility.yul\":5247:5311   */\n      tag_64\n      jump\t// in\n    tag_127:\n        /* \"#utility.yul\":5237:5311   */\n      swap3\n      pop\n        /* \"#utility.yul\":5192:5321   */\n      pop\n        /* \"#utility.yul\":5360:5363   */\n      0x80\n        /* \"#utility.yul\":5387:5450   */\n      tag_128\n        /* \"#utility.yul\":5442:5449   */\n      dup9\n        /* \"#utility.yul\":5433:5439   */\n      dup3\n        /* \"#utility.yul\":5422:5431   */\n      dup10\n        /* \"#utility.yul\":5418:5440   */\n      add\n        /* \"#utility.yul\":5387:5450   */\n      tag_60\n      jump\t// in\n    tag_128:\n        /* \"#utility.yul\":5377:5450   */\n      swap2\n      pop\n        /* \"#utility.yul\":5331:5460   */\n      pop\n        /* \"#utility.yul\":4496:5467   */\n      swap3\n      swap6\n      pop\n      swap3\n      swap6\n      swap1\n      swap4\n      pop\n      jump\t// out\n        /* \"#utility.yul\":5473:5883   */\n    tag_40:\n        /* \"#utility.yul\":5513:5520   */\n      0x00\n        /* \"#utility.yul\":5536:5556   */\n      tag_130\n        /* \"#utility.yul\":5554:5555   */\n      dup3\n        /* \"#utility.yul\":5536:5556   */\n      tag_50\n      jump\t// in\n    tag_130:\n        /* \"#utility.yul\":5531:5556   */\n      swap2\n      pop\n        /* \"#utility.yul\":5570:5590   */\n      tag_131\n        /* \"#utility.yul\":5588:5589   */\n      dup4\n        /* \"#utility.yul\":5570:5590   */\n      tag_50\n      jump\t// in\n    tag_131:\n        /* \"#utility.yul\":5565:5590   */\n      swap3\n      pop\n        /* \"#utility.yul\":5625:5626   */\n      dup3\n        /* \"#utility.yul\":5622:5623   */\n      dup3\n        /* \"#utility.yul\":5618:5627   */\n      mul\n        /* \"#utility.yul\":5647:5677   */\n      tag_132\n        /* \"#utility.yul\":5665:5676   */\n      dup2\n        /* \"#utility.yul\":5647:5677   */\n      tag_50\n      jump\t// in\n    tag_132:\n        /* \"#utility.yul\":5636:5677   */\n      swap2\n      pop\n        /* \"#utility.yul\":5826:5827   */\n      dup3\n        /* \"#utility.yul\":5817:5824   */\n      dup3\n        /* \"#utility.yul\":5813:5828   */\n      div\n        /* \"#utility.yul\":5810:5811   */\n      dup5\n        /* \"#utility.yul\":5807:5829   */\n      eq\n        /* \"#utility.yul\":5787:5788   */\n      dup4\n        /* \"#utility.yul\":5780:5789   */\n      iszero\n        /* \"#utility.yul\":5760:5843   */\n      or\n        /* \"#utility.yul\":5737:5876   */\n      tag_133\n      jumpi\n        /* \"#utility.yul\":5856:5874   */\n      tag_134\n      tag_57\n      jump\t// in\n    tag_134:\n        /* \"#utility.yul\":5737:5876   */\n    tag_133:\n        /* \"#utility.yul\":5521:5883   */\n      pop\n        /* \"#utility.yul\":5473:5883   */\n      swap3\n      swap2\n      pop\n      pop\n      jump\t// out\n        /* \"#utility.yul\":5889:6069   */\n    tag_65:\n        /* \"#utility.yul\":5937:6014   */\n      0x4e487b7100000000000000000000000000000000000000000000000000000000\n        /* \"#utility.yul\":5934:5935   */\n      0x00\n        /* \"#utility.yul\":5927:6015   */\n      mstore\n        /* \"#utility.yul\":6034:6038   */\n      0x12\n        /* \"#utility.yul\":6031:6032   */\n      0x04\n        /* \"#utility.yul\":6024:6039   */\n      mstore\n        /* \"#utility.yul\":6058:6062   */\n      0x24\n        /* \"#utility.yul\":6055:6056   */\n      0x00\n        /* \"#utility.yul\":6048:6063   */\n      revert\n        /* \"#utility.yul\":6075:6260   */\n    tag_42:\n        /* \"#utility.yul\":6115:6116   */\n      0x00\n        /* \"#utility.yul\":6132:6152   */\n      tag_137\n        /* \"#utility.yul\":6150:6151   */\n      dup3\n        /* \"#utility.yul\":6132:6152   */\n      tag_50\n      jump\t// in\n    tag_137:\n        /* \"#utility.yul\":6127:6152   */\n      swap2\n      pop\n        /* \"#utility.yul\":6166:6186   */\n      tag_138\n        /* \"#utility.yul\":6184:6185   */\n      dup4\n        /* \"#utility.yul\":6166:6186   */\n      tag_50\n      jump\t// in\n    tag_138:\n        /* \"#utility.yul\":6161:6186   */\n      swap3\n      pop\n        /* \"#utility.yul\":6205:6206   */\n      dup3\n        /* \"#utility.yul\":6195:6230   */\n      tag_139\n      jumpi\n        /* \"#utility.yul\":6210:6228   */\n      tag_140\n      tag_65\n      jump\t// in\n    tag_140:\n        /* \"#utility.yul\":6195:6230   */\n    tag_139:\n        /* \"#utility.yul\":6252:6253   */\n      dup3\n        /* \"#utility.yul\":6249:6250   */\n      dup3\n        /* \"#utility.yul\":6245:6254   */\n      div\n        /* \"#utility.yul\":6240:6254   */\n      swap1\n      pop\n        /* \"#utility.yul\":6075:6260   */\n      swap3\n      swap2\n      pop\n      pop\n      jump\t// out\n\n    auxdata: 0xa2646970667358221220a53b902770c97ae432c70b87e2ad533de05dc4123f6c5163f0392028e244e80d64736f6c63430008140033\n}\n",
				"bytecode": {
					"linkReferences": {},
					"object": "608060405268056bc75e2d6310000060015534801561001c575f80fd5b5073694aa1769357215de4fac081bf1f309adc32530660025f6101000a81548173ffffffffffffffffffffffffffffffffffffffff021916908373ffffffffffffffffffffffffffffffffffffffff16021790555061062d8061007e5f395ff3fe60806040526004361061003e575f3560e01c80634407e1e814610042578063b60d42881461007e578063bea4dfb514610088578063f8a8fd6d146100b2575b5f80fd5b34801561004d575f80fd5b50610068600480360381019061006391906102ea565b6100c8565b604051610075919061032d565b60405180910390f35b6100866100dc565b005b348015610093575f80fd5b5061009c6101b8565b6040516100a9919061035e565b60405180910390f35b3480156100bd575f80fd5b506100c6610255565b005b5f602052805f5260405f205f915090505481565b6001546100e83461025d565b1015610129576040517f08c379a0000000000000000000000000000000000000000000000000000000008152600401610120906103d1565b60405180910390fd5b5f805f3373ffffffffffffffffffffffffffffffffffffffff1673ffffffffffffffffffffffffffffffffffffffff1681526020019081526020015f205490503481610175919061041c565b5f803373ffffffffffffffffffffffffffffffffffffffff1673ffffffffffffffffffffffffffffffffffffffff1681526020019081526020015f208190555050565b5f8060025f9054906101000a900473ffffffffffffffffffffffffffffffffffffffff1673ffffffffffffffffffffffffffffffffffffffff1663feaf968c6040518163ffffffff1660e01b815260040160a060405180830381865afa158015610224573d5f803e3d5ffd5b505050506040513d601f19601f8201168201806040525081019061024891906104e2565b5050509150508091505090565b5f6001905050565b5f806102676101b8565b90506305f5e100818461027a9190610559565b61028491906105c7565b915050919050565b5f80fd5b5f73ffffffffffffffffffffffffffffffffffffffff82169050919050565b5f6102b982610290565b9050919050565b6102c9816102af565b81146102d3575f80fd5b50565b5f813590506102e4816102c0565b92915050565b5f602082840312156102ff576102fe61028c565b5b5f61030c848285016102d6565b91505092915050565b5f819050919050565b61032781610315565b82525050565b5f6020820190506103405f83018461031e565b92915050565b5f819050919050565b61035881610346565b82525050565b5f6020820190506103715f83018461034f565b92915050565b5f82825260208201905092915050565b7f53656e64206d6f726520455448000000000000000000000000000000000000005f82015250565b5f6103bb600d83610377565b91506103c682610387565b602082019050919050565b5f6020820190508181035f8301526103e8816103af565b9050919050565b7f4e487b71000000000000000000000000000000000000000000000000000000005f52601160045260245ffd5b5f61042682610315565b915061043183610315565b9250828201905080821115610449576104486103ef565b5b92915050565b5f69ffffffffffffffffffff82169050919050565b61046d8161044f565b8114610477575f80fd5b50565b5f8151905061048881610464565b92915050565b61049781610346565b81146104a1575f80fd5b50565b5f815190506104b28161048e565b92915050565b6104c181610315565b81146104cb575f80fd5b50565b5f815190506104dc816104b8565b92915050565b5f805f805f60a086880312156104fb576104fa61028c565b5b5f6105088882890161047a565b9550506020610519888289016104a4565b945050604061052a888289016104ce565b935050606061053b888289016104ce565b925050608061054c8882890161047a565b9150509295509295909350565b5f61056382610315565b915061056e83610315565b925082820261057c81610315565b91508282048414831517610593576105926103ef565b5b5092915050565b7f4e487b71000000000000000000000000000000000000000000000000000000005f52601260045260245ffd5b5f6105d182610315565b91506105dc83610315565b9250826105ec576105eb61059a565b5b82820490509291505056fea2646970667358221220a53b902770c97ae432c70b87e2ad533de05dc4123f6c5163f0392028e244e80d64736f6c63430008140033",
					"opcodes": "PUSH1 0x80 PUSH1 0x40 MSTORE PUSH9 0x56BC75E2D63100000 PUSH1 0x1 SSTORE CALLVALUE DUP1 ISZERO PUSH2 0x1C JUMPI PUSH0 DUP1 REVERT JUMPDEST POP PUSH20 0x694AA1769357215DE4FAC081BF1F309ADC325306 PUSH1 0x2 PUSH0 PUSH2 0x100 EXP DUP2 SLOAD DUP2 PUSH20 0xFFFFFFFFFFFFFFFFFFFFFFFFFFFFFFFFFFFFFFFF MUL NOT AND SWAP1 DUP4 PUSH20 0xFFFFFFFFFFFFFFFFFFFFFFFFFFFFFFFFFFFFFFFF AND MUL OR SWAP1 SSTORE POP PUSH2 0x62D DUP1 PUSH2 0x7E PUSH0 CODECOPY PUSH0 RETURN INVALID PUSH1 0x80 PUSH1 0x40 MSTORE PUSH1 0x4 CALLDATASIZE LT PUSH2 0x3E JUMPI PUSH0 CALLDATALOAD PUSH1 0xE0 SHR DUP1 PUSH4 0x4407E1E8 EQ PUSH2 0x42 JUMPI DUP1 PUSH4 0xB60D4288 EQ PUSH2 0x7E JUMPI DUP1 PUSH4 0xBEA4DFB5 EQ PUSH2 0x88 JUMPI DUP1 PUSH4 0xF8A8FD6D EQ PUSH2 0xB2 JUMPI JUMPDEST PUSH0 DUP1 REVERT JUMPDEST CALLVALUE DUP1 ISZERO PUSH2 0x4D JUMPI PUSH0 DUP1 REVERT JUMPDEST POP PUSH2 0x68 PUSH1 0x4 DUP1 CALLDATASIZE SUB DUP2 ADD SWAP1 PUSH2 0x63 SWAP2 SWAP1 PUSH2 0x2EA JUMP JUMPDEST PUSH2 0xC8 JUMP JUMPDEST PUSH1 0x40 MLOAD PUSH2 0x75 SWAP2 SWAP1 PUSH2 0x32D JUMP JUMPDEST PUSH1 0x40 MLOAD DUP1 SWAP2 SUB SWAP1 RETURN JUMPDEST PUSH2 0x86 PUSH2 0xDC JUMP JUMPDEST STOP JUMPDEST CALLVALUE DUP1 ISZERO PUSH2 0x93 JUMPI PUSH0 DUP1 REVERT JUMPDEST POP PUSH2 0x9C PUSH2 0x1B8 JUMP JUMPDEST PUSH1 0x40 MLOAD PUSH2 0xA9 SWAP2 SWAP1 PUSH2 0x35E JUMP JUMPDEST PUSH1 0x40 MLOAD DUP1 SWAP2 SUB SWAP1 RETURN JUMPDEST CALLVALUE DUP1 ISZERO PUSH2 0xBD JUMPI PUSH0 DUP1 REVERT JUMPDEST POP PUSH2 0xC6 PUSH2 0x255 JUMP JUMPDEST STOP JUMPDEST PUSH0 PUSH1 0x20 MSTORE DUP1 PUSH0 MSTORE PUSH1 0x40 PUSH0 KECCAK256 PUSH0 SWAP2 POP SWAP1 POP SLOAD DUP2 JUMP JUMPDEST PUSH1 0x1 SLOAD PUSH2 0xE8 CALLVALUE PUSH2 0x25D JUMP JUMPDEST LT ISZERO PUSH2 0x129 JUMPI PUSH1 0x40 MLOAD PUSH32 0x8C379A000000000000000000000000000000000000000000000000000000000 DUP2 MSTORE PUSH1 0x4 ADD PUSH2 0x120 SWAP1 PUSH2 0x3D1 JUMP JUMPDEST PUSH1 0x40 MLOAD DUP1 SWAP2 SUB SWAP1 REVERT JUMPDEST PUSH0 DUP1 PUSH0 CALLER PUSH20 0xFFFFFFFFFFFFFFFFFFFFFFFFFFFFFFFFFFFFFFFF AND PUSH20 0xFFFFFFFFFFFFFFFFFFFFFFFFFFFFFFFFFFFFFFFF AND DUP2 MSTORE PUSH1 0x20 ADD SWAP1 DUP2 MSTORE PUSH1 0x20 ADD PUSH0 KECCAK256 SLOAD SWAP1 POP CALLVALUE DUP2 PUSH2 0x175 SWAP2 SWAP1 PUSH2 0x41C JUMP JUMPDEST PUSH0 DUP1 CALLER PUSH20 0xFFFFFFFFFFFFFFFFFFFFFFFFFFFFFFFFFFFFFFFF AND PUSH20 0xFFFFFFFFFFFFFFFFFFFFFFFFFFFFFFFFFFFFFFFF AND DUP2 MSTORE PUSH1 0x20 ADD SWAP1 DUP2 MSTORE PUSH1 0x20 ADD PUSH0 KECCAK256 DUP2 SWAP1 SSTORE POP POP JUMP JUMPDEST PUSH0 DUP1 PUSH1 0x2 PUSH0 SWAP1 SLOAD SWAP1 PUSH2 0x100 EXP SWAP1 DIV PUSH20 0xFFFFFFFFFFFFFFFFFFFFFFFFFFFFFFFFFFFFFFFF AND PUSH20 0xFFFFFFFFFFFFFFFFFFFFFFFFFFFFFFFFFFFFFFFF AND PUSH4 0xFEAF968C PUSH1 0x40 MLOAD DUP2 PUSH4 0xFFFFFFFF AND PUSH1 0xE0 SHL DUP2 MSTORE PUSH1 0x4 ADD PUSH1 0xA0 PUSH1 0x40 MLOAD DUP1 DUP4 SUB DUP2 DUP7 GAS STATICCALL ISZERO DUP1 ISZERO PUSH2 0x224 JUMPI RETURNDATASIZE PUSH0 DUP1 RETURNDATACOPY RETURNDATASIZE PUSH0 REVERT JUMPDEST POP POP POP POP PUSH1 0x40 MLOAD RETURNDATASIZE PUSH1 0x1F NOT PUSH1 0x1F DUP3 ADD AND DUP3 ADD DUP1 PUSH1 0x40 MSTORE POP DUP2 ADD SWAP1 PUSH2 0x248 SWAP2 SWAP1 PUSH2 0x4E2 JUMP JUMPDEST POP POP POP SWAP2 POP POP DUP1 SWAP2 POP POP SWAP1 JUMP JUMPDEST PUSH0 PUSH1 0x1 SWAP1 POP POP JUMP JUMPDEST PUSH0 DUP1 PUSH2 0x267 PUSH2 0x1B8 JUMP JUMPDEST SWAP1 POP PUSH4 0x5F5E100 DUP2 DUP5 PUSH2 0x27A SWAP2 SWAP1 PUSH2 0x559 JUMP JUMPDEST PUSH2 0x284 SWAP2 SWAP1 PUSH2 0x5C7 JUMP JUMPDEST SWAP2 POP POP SWAP2 SWAP1 POP JUMP JUMPDEST PUSH0 DUP1 REVERT JUMPDEST PUSH0 PUSH20 0xFFFFFFFFFFFFFFFFFFFFFFFFFFFFFFFFFFFFFFFF DUP3 AND SWAP1 POP SWAP2 SWAP1 POP JUMP JUMPDEST PUSH0 PUSH2 0x2B9 DUP3 PUSH2 0x290 JUMP JUMPDEST SWAP1 POP SWAP2 SWAP1 POP JUMP JUMPDEST PUSH2 0x2C9 DUP2 PUSH2 0x2AF JUMP JUMPDEST DUP2 EQ PUSH2 0x2D3 JUMPI PUSH0 DUP1 REVERT JUMPDEST POP JUMP JUMPDEST PUSH0 DUP2 CALLDATALOAD SWAP1 POP PUSH2 0x2E4 DUP2 PUSH2 0x2C0 JUMP JUMPDEST SWAP3 SWAP2 POP POP JUMP JUMPDEST PUSH0 PUSH1 0x20 DUP3 DUP5 SUB SLT ISZERO PUSH2 0x2FF JUMPI PUSH2 0x2FE PUSH2 0x28C JUMP JUMPDEST JUMPDEST PUSH0 PUSH2 0x30C DUP5 DUP3 DUP6 ADD PUSH2 0x2D6 JUMP JUMPDEST SWAP2 POP POP SWAP3 SWAP2 POP POP JUMP JUMPDEST PUSH0 DUP2 SWAP1 POP SWAP2 SWAP1 POP JUMP JUMPDEST PUSH2 0x327 DUP2 PUSH2 0x315 JUMP JUMPDEST DUP3 MSTORE POP POP JUMP JUMPDEST PUSH0 PUSH1 0x20 DUP3 ADD SWAP1 POP PUSH2 0x340 PUSH0 DUP4 ADD DUP5 PUSH2 0x31E JUMP JUMPDEST SWAP3 SWAP2 POP POP JUMP JUMPDEST PUSH0 DUP2 SWAP1 POP SWAP2 SWAP1 POP JUMP JUMPDEST PUSH2 0x358 DUP2 PUSH2 0x346 JUMP JUMPDEST DUP3 MSTORE POP POP JUMP JUMPDEST PUSH0 PUSH1 0x20 DUP3 ADD SWAP1 POP PUSH2 0x371 PUSH0 DUP4 ADD DUP5 PUSH2 0x34F JUMP JUMPDEST SWAP3 SWAP2 POP POP JUMP JUMPDEST PUSH0 DUP3 DUP3 MSTORE PUSH1 0x20 DUP3 ADD SWAP1 POP SWAP3 SWAP2 POP POP JUMP JUMPDEST PUSH32 0x53656E64206D6F72652045544800000000000000000000000000000000000000 PUSH0 DUP3 ADD MSTORE POP JUMP JUMPDEST PUSH0 PUSH2 0x3BB PUSH1 0xD DUP4 PUSH2 0x377 JUMP JUMPDEST SWAP2 POP PUSH2 0x3C6 DUP3 PUSH2 0x387 JUMP JUMPDEST PUSH1 0x20 DUP3 ADD SWAP1 POP SWAP2 SWAP1 POP JUMP JUMPDEST PUSH0 PUSH1 0x20 DUP3 ADD SWAP1 POP DUP2 DUP2 SUB PUSH0 DUP4 ADD MSTORE PUSH2 0x3E8 DUP2 PUSH2 0x3AF JUMP JUMPDEST SWAP1 POP SWAP2 SWAP1 POP JUMP JUMPDEST PUSH32 0x4E487B7100000000000000000000000000000000000000000000000000000000 PUSH0 MSTORE PUSH1 0x11 PUSH1 0x4 MSTORE PUSH1 0x24 PUSH0 REVERT JUMPDEST PUSH0 PUSH2 0x426 DUP3 PUSH2 0x315 JUMP JUMPDEST SWAP2 POP PUSH2 0x431 DUP4 PUSH2 0x315 JUMP JUMPDEST SWAP3 POP DUP3 DUP3 ADD SWAP1 POP DUP1 DUP3 GT ISZERO PUSH2 0x449 JUMPI PUSH2 0x448 PUSH2 0x3EF JUMP JUMPDEST JUMPDEST SWAP3 SWAP2 POP POP JUMP JUMPDEST PUSH0 PUSH10 0xFFFFFFFFFFFFFFFFFFFF DUP3 AND SWAP1 POP SWAP2 SWAP1 POP JUMP JUMPDEST PUSH2 0x46D DUP2 PUSH2 0x44F JUMP JUMPDEST DUP2 EQ PUSH2 0x477 JUMPI PUSH0 DUP1 REVERT JUMPDEST POP JUMP JUMPDEST PUSH0 DUP2 MLOAD SWAP1 POP PUSH2 0x488 DUP2 PUSH2 0x464 JUMP JUMPDEST SWAP3 SWAP2 POP POP JUMP JUMPDEST PUSH2 0x497 DUP2 PUSH2 0x346 JUMP JUMPDEST DUP2 EQ PUSH2 0x4A1 JUMPI PUSH0 DUP1 REVERT JUMPDEST POP JUMP JUMPDEST PUSH0 DUP2 MLOAD SWAP1 POP PUSH2 0x4B2 DUP2 PUSH2 0x48E JUMP JUMPDEST SWAP3 SWAP2 POP POP JUMP JUMPDEST PUSH2 0x4C1 DUP2 PUSH2 0x315 JUMP JUMPDEST DUP2 EQ PUSH2 0x4CB JUMPI PUSH0 DUP1 REVERT JUMPDEST POP JUMP JUMPDEST PUSH0 DUP2 MLOAD SWAP1 POP PUSH2 0x4DC DUP2 PUSH2 0x4B8 JUMP JUMPDEST SWAP3 SWAP2 POP POP JUMP JUMPDEST PUSH0 DUP1 PUSH0 DUP1 PUSH0 PUSH1 0xA0 DUP7 DUP9 SUB SLT ISZERO PUSH2 0x4FB JUMPI PUSH2 0x4FA PUSH2 0x28C JUMP JUMPDEST JUMPDEST PUSH0 PUSH2 0x508 DUP9 DUP3 DUP10 ADD PUSH2 0x47A JUMP JUMPDEST SWAP6 POP POP PUSH1 0x20 PUSH2 0x519 DUP9 DUP3 DUP10 ADD PUSH2 0x4A4 JUMP JUMPDEST SWAP5 POP POP PUSH1 0x40 PUSH2 0x52A DUP9 DUP3 DUP10 ADD PUSH2 0x4CE JUMP JUMPDEST SWAP4 POP POP PUSH1 0x60 PUSH2 0x53B DUP9 DUP3 DUP10 ADD PUSH2 0x4CE JUMP JUMPDEST SWAP3 POP POP PUSH1 0x80 PUSH2 0x54C DUP9 DUP3 DUP10 ADD PUSH2 0x47A JUMP JUMPDEST SWAP2 POP POP SWAP3 SWAP6 POP SWAP3 SWAP6 SWAP1 SWAP4 POP JUMP JUMPDEST PUSH0 PUSH2 0x563 DUP3 PUSH2 0x315 JUMP JUMPDEST SWAP2 POP PUSH2 0x56E DUP4 PUSH2 0x315 JUMP JUMPDEST SWAP3 POP DUP3 DUP3 MUL PUSH2 0x57C DUP2 PUSH2 0x315 JUMP JUMPDEST SWAP2 POP DUP3 DUP3 DIV DUP5 EQ DUP4 ISZERO OR PUSH2 0x593 JUMPI PUSH2 0x592 PUSH2 0x3EF JUMP JUMPDEST JUMPDEST POP SWAP3 SWAP2 POP POP JUMP JUMPDEST PUSH32 0x4E487B7100000000000000000000000000000000000000000000000000000000 PUSH0 MSTORE PUSH1 0x12 PUSH1 0x4 MSTORE PUSH1 0x24 PUSH0 REVERT JUMPDEST PUSH0 PUSH2 0x5D1 DUP3 PUSH2 0x315 JUMP JUMPDEST SWAP2 POP PUSH2 0x5DC DUP4 PUSH2 0x315 JUMP JUMPDEST SWAP3 POP DUP3 PUSH2 0x5EC JUMPI PUSH2 0x5EB PUSH2 0x59A JUMP JUMPDEST JUMPDEST DUP3 DUP3 DIV SWAP1 POP SWAP3 SWAP2 POP POP JUMP INVALID LOG2 PUSH5 0x6970667358 0x22 SLT KECCAK256 0xA5 EXTCODESIZE SWAP1 0x27 PUSH17 0xC97AE432C70B87E2AD533DE05DC4123F6C MLOAD PUSH4 0xF0392028 0xE2 PREVRANDAO 0xE8 0xD PUSH5 0x736F6C6343 STOP ADDMOD EQ STOP CALLER "
				},
				"gasEstimates": {
					"creation": {
						"codeDepositCost": "316200",
						"executionCost": "46725",
						"totalCost": "362925"
					},
					"external": {
						"fund()": "infinite",
						"funderToAmount(address)": "2779",
						"getChainlinkDataFeedLatestAnswer()": "infinite",
						"test()": "199"
					},
					"internal": {
						"convertEthToUsd(uint256)": "infinite"
					}
				},
				"methodIdentifiers": {
					"fund()": "b60d4288",
					"funderToAmount(address)": "4407e1e8",
					"getChainlinkDataFeedLatestAnswer()": "bea4dfb5",
					"test()": "f8a8fd6d"
				}
			},
			"storageLayout": {
				"storage": [
					{
						"astId": 53,
						"contract": "contracts/FundMe.sol:FoundMe",
						"label": "funderToAmount",
						"offset": 0,
						"slot": "0",
						"type": "t_mapping(t_address,t_uint256)"
					},
					{
						"astId": 60,
						"contract": "contracts/FundMe.sol:FoundMe",
						"label": "MINIMUM_VALUE",
						"offset": 0,
						"slot": "1",
						"type": "t_uint256"
					},
					{
						"astId": 63,
						"contract": "contracts/FundMe.sol:FoundMe",
						"label": "dataFeed",
						"offset": 0,
						"slot": "2",
						"type": "t_contract(AggregatorV3Interface)45"
					}
				],
				"types": {
					"t_address": {
						"encoding": "inplace",
						"label": "address",
						"numberOfBytes": "20"
					},
					"t_contract(AggregatorV3Interface)45": {
						"encoding": "inplace",
						"label": "contract AggregatorV3Interface",
						"numberOfBytes": "20"
					},
					"t_mapping(t_address,t_uint256)": {
						"encoding": "mapping",
						"key": "t_address",
						"label": "mapping(address => uint256)",
						"numberOfBytes": "32",
						"value": "t_uint256"
					},
					"t_uint256": {
						"encoding": "inplace",
						"label": "uint256",
						"numberOfBytes": "32"
					}
				}
			},
			"userdoc": {
				"kind": "user",
				"methods": {},
				"version": 1
			}
		}
	}
}