{
	"data": {
		"bytecode": {
			"linkReferences": {},
			"object": "608060405234801561000f575f80fd5b5061160d8061001d5f395ff3fe608060405234801562000010575f80fd5b506004361062000050575f3560e01c80630f9d36c81462000054578063d03eef281462000074578063d7c30a991462000080578063ebb7e7fe14620000b6575b5f80fd5b6200007260048036038101906200006c9190620004e4565b620000ec565b005b6200007e6200019a565b005b6200009e60048036038101906200009891906200055c565b62000228565b604051620000ad919062000612565b60405180910390f35b620000d46004803603810190620000ce91906200062d565b6200026e565b604051620000e39190620006f6565b60405180910390f35b5f838154811062000102576200010162000718565b5b905f5260205f20015f9054906101000a900473ffffffffffffffffffffffffffffffffffffffff1673ffffffffffffffffffffffffffffffffffffffff1663d44bed7283836040518363ffffffff1660e01b81526004016200016692919062000756565b5f604051808303815f87803b1580156200017e575f80fd5b505af115801562000191573d5f803e3d5ffd5b50505050505050565b5f604051620001a99062000335565b604051809103905ff080158015620001c3573d5f803e3d5ffd5b5090505f81908060018154018082558091505060019003905f5260205f20015f9091909190916101000a81548173ffffffffffffffffffffffffffffffffffffffff021916908373ffffffffffffffffffffffffffffffffffffffff16021790555050565b5f8082815481106200023f576200023e62000718565b5b905f5260205f20015f9054906101000a900473ffffffffffffffffffffffffffffffffffffffff169050919050565b60605f838154811062000286576200028562000718565b5b905f5260205f20015f9054906101000a900473ffffffffffffffffffffffffffffffffffffffff1673ffffffffffffffffffffffffffffffffffffffff1663cfb025ac836040518263ffffffff1660e01b8152600401620002e8919062000788565b5f60405180830381865afa15801562000303573d5f803e3d5ffd5b505050506040513d5f823e3d601f19601f820116820180604052508101906200032d91906200081f565b905092915050565b610d69806200086f83390190565b5f604051905090565b5f80fd5b5f80fd5b5f819050919050565b620003688162000354565b811462000373575f80fd5b50565b5f8135905062000386816200035d565b92915050565b5f80fd5b5f80fd5b5f601f19601f8301169050919050565b7f4e487b71000000000000000000000000000000000000000000000000000000005f52604160045260245ffd5b620003dc8262000394565b810181811067ffffffffffffffff82111715620003fe57620003fd620003a4565b5b80604052505050565b5f6200041262000343565b9050620004208282620003d1565b919050565b5f67ffffffffffffffff821115620004425762000441620003a4565b5b6200044d8262000394565b9050602081019050919050565b828183375f83830152505050565b5f6200047e620004788462000425565b62000407565b9050828152602081018484840111156200049d576200049c62000390565b5b620004aa8482856200045a565b509392505050565b5f82601f830112620004c957620004c86200038c565b5b8135620004db84826020860162000468565b91505092915050565b5f805f60608486031215620004fe57620004fd6200034c565b5b5f6200050d8682870162000376565b935050602084013567ffffffffffffffff81111562000531576200053062000350565b5b6200053f86828701620004b2565b9250506040620005528682870162000376565b9150509250925092565b5f602082840312156200057457620005736200034c565b5b5f620005838482850162000376565b91505092915050565b5f73ffffffffffffffffffffffffffffffffffffffff82169050919050565b5f819050919050565b5f620005d4620005ce620005c8846200058c565b620005ab565b6200058c565b9050919050565b5f620005e782620005b4565b9050919050565b5f620005fa82620005db565b9050919050565b6200060c81620005ee565b82525050565b5f602082019050620006275f83018462000601565b92915050565b5f80604083850312156200064657620006456200034c565b5b5f620006558582860162000376565b9250506020620006688582860162000376565b9150509250929050565b5f81519050919050565b5f82825260208201905092915050565b5f5b83811015620006ab5780820151818401526020810190506200068e565b5f8484015250505050565b5f620006c28262000672565b620006ce81856200067c565b9350620006e08185602086016200068c565b620006eb8162000394565b840191505092915050565b5f6020820190508181035f830152620007108184620006b6565b905092915050565b7f4e487b71000000000000000000000000000000000000000000000000000000005f52603260045260245ffd5b620007508162000354565b82525050565b5f6040820190508181035f830152620007708185620006b6565b905062000781602083018462000745565b9392505050565b5f6020820190506200079d5f83018462000745565b92915050565b5f620007b9620007b38462000425565b62000407565b905082815260208101848484011115620007d857620007d762000390565b5b620007e58482856200068c565b509392505050565b5f82601f8301126200080457620008036200038c565b5b815162000816848260208601620007a3565b91505092915050565b5f602082840312156200083757620008366200034c565b5b5f82015167ffffffffffffffff81111562000857576200085662000350565b5b6200086584828501620007ed565b9150509291505056fe60806040526040518060400160405280600781526020017f64656661756c74000000000000000000000000000000000000000000000000008152505f908162000049919062000301565b5034801562000056575f80fd5b503360015f6101000a81548173ffffffffffffffffffffffffffffffffffffffff021916908373ffffffffffffffffffffffffffffffffffffffff160217905550620003e5565b5f81519050919050565b7f4e487b71000000000000000000000000000000000000000000000000000000005f52604160045260245ffd5b7f4e487b71000000000000000000000000000000000000000000000000000000005f52602260045260245ffd5b5f60028204905060018216806200011957607f821691505b6020821081036200012f576200012e620000d4565b5b50919050565b5f819050815f5260205f209050919050565b5f6020601f8301049050919050565b5f82821b905092915050565b5f60088302620001937fffffffffffffffffffffffffffffffffffffffffffffffffffffffffffffffff8262000156565b6200019f868362000156565b95508019841693508086168417925050509392505050565b5f819050919050565b5f819050919050565b5f620001e9620001e3620001dd84620001b7565b620001c0565b620001b7565b9050919050565b5f819050919050565b6200020483620001c9565b6200021c6200021382620001f0565b84845462000162565b825550505050565b5f90565b6200023262000224565b6200023f818484620001f9565b505050565b5b8181101562000266576200025a5f8262000228565b60018101905062000245565b5050565b601f821115620002b5576200027f8162000135565b6200028a8462000147565b810160208510156200029a578190505b620002b2620002a98562000147565b83018262000244565b50505b505050565b5f82821c905092915050565b5f620002d75f1984600802620002ba565b1980831691505092915050565b5f620002f18383620002c6565b9150826002028217905092915050565b6200030c826200009d565b67ffffffffffffffff811115620003285762000327620000a7565b5b62000334825462000101565b620003418282856200026a565b5f60209050601f83116001811462000377575f841562000362578287015190505b6200036e8582620002e4565b865550620003dd565b601f198416620003878662000135565b5f5b82811015620003b05784890151825560018201915060208501945060208101905062000389565b86831015620003d05784890151620003cc601f891682620002c6565b8355505b6001600288020188555050505b505050505050565b61097680620003f35f395ff3fe608060405234801561000f575f80fd5b5060043610610034575f3560e01c8063cfb025ac14610038578063d44bed7214610068575b5f80fd5b610052600480360381019061004d9190610397565b610084565b60405161005f919061044c565b60405180910390f35b610082600480360381019061007d9190610598565b610278565b005b60605f60035f8481526020019081526020015f206040518060600160405290815f82015481526020016001820180546100bc9061061f565b80601f01602080910402602001604051908101604052809291908181526020018280546100e89061061f565b80156101335780601f1061010a57610100808354040283529160200191610133565b820191905f5260205f20905b81548152906001019060200180831161011657829003601f168201915b50505050508152602001600282015f9054906101000a900473ffffffffffffffffffffffffffffffffffffffff1673ffffffffffffffffffffffffffffffffffffffff1673ffffffffffffffffffffffffffffffffffffffff168152505090505f73ffffffffffffffffffffffffffffffffffffffff16816040015173ffffffffffffffffffffffffffffffffffffffff16036102625761025a5f80546101d99061061f565b80601f01602080910402602001604051908101604052809291908181526020018280546102059061061f565b80156102505780601f1061022757610100808354040283529160200191610250565b820191905f5260205f20905b81548152906001019060200180831161023357829003601f168201915b505050505061032a565b915050610273565b61026f816020015161032a565b9150505b919050565b5f60405180606001604052808381526020018481526020013373ffffffffffffffffffffffffffffffffffffffff1681525090508060035f8481526020019081526020015f205f820151815f015560208201518160010190816102db91906107ec565b506040820151816002015f6101000a81548173ffffffffffffffffffffffffffffffffffffffff021916908373ffffffffffffffffffffffffffffffffffffffff160217905550905050505050565b60608160405160200161033d919061091b565b6040516020818303038152906040529050919050565b5f604051905090565b5f80fd5b5f80fd5b5f819050919050565b61037681610364565b8114610380575f80fd5b50565b5f813590506103918161036d565b92915050565b5f602082840312156103ac576103ab61035c565b5b5f6103b984828501610383565b91505092915050565b5f81519050919050565b5f82825260208201905092915050565b5f5b838110156103f95780820151818401526020810190506103de565b5f8484015250505050565b5f601f19601f8301169050919050565b5f61041e826103c2565b61042881856103cc565b93506104388185602086016103dc565b61044181610404565b840191505092915050565b5f6020820190508181035f8301526104648184610414565b905092915050565b5f80fd5b5f80fd5b7f4e487b71000000000000000000000000000000000000000000000000000000005f52604160045260245ffd5b6104aa82610404565b810181811067ffffffffffffffff821117156104c9576104c8610474565b5b80604052505050565b5f6104db610353565b90506104e782826104a1565b919050565b5f67ffffffffffffffff82111561050657610505610474565b5b61050f82610404565b9050602081019050919050565b828183375f83830152505050565b5f61053c610537846104ec565b6104d2565b90508281526020810184848401111561055857610557610470565b5b61056384828561051c565b509392505050565b5f82601f83011261057f5761057e61046c565b5b813561058f84826020860161052a565b91505092915050565b5f80604083850312156105ae576105ad61035c565b5b5f83013567ffffffffffffffff8111156105cb576105ca610360565b5b6105d78582860161056b565b92505060206105e885828601610383565b9150509250929050565b7f4e487b71000000000000000000000000000000000000000000000000000000005f52602260045260245ffd5b5f600282049050600182168061063657607f821691505b602082108103610649576106486105f2565b5b50919050565b5f819050815f5260205f209050919050565b5f6020601f8301049050919050565b5f82821b905092915050565b5f600883026106ab7fffffffffffffffffffffffffffffffffffffffffffffffffffffffffffffffff82610670565b6106b58683610670565b95508019841693508086168417925050509392505050565b5f819050919050565b5f6106f06106eb6106e684610364565b6106cd565b610364565b9050919050565b5f819050919050565b610709836106d6565b61071d610715826106f7565b84845461067c565b825550505050565b5f90565b610731610725565b61073c818484610700565b505050565b5b8181101561075f576107545f82610729565b600181019050610742565b5050565b601f8211156107a4576107758161064f565b61077e84610661565b8101602085101561078d578190505b6107a161079985610661565b830182610741565b50505b505050565b5f82821c905092915050565b5f6107c45f19846008026107a9565b1980831691505092915050565b5f6107dc83836107b5565b9150826002028217905092915050565b6107f5826103c2565b67ffffffffffffffff81111561080e5761080d610474565b5b610818825461061f565b610823828285610763565b5f60209050601f831160018114610854575f8415610842578287015190505b61084c85826107d1565b8655506108b3565b601f1984166108628661064f565b5f5b8281101561088957848901518255600182019150602085019450602081019050610864565b868310156108a657848901516108a2601f8916826107b5565b8355505b6001600288020188555050505b505050505050565b7f68656c6c6f20776f726c64203a00000000000000000000000000000000000000815250565b5f81905092915050565b5f6108f5826103c2565b6108ff81856108e1565b935061090f8185602086016103dc565b80840191505092915050565b5f610925826108bb565b600d8201915061093582846108eb565b91508190509291505056fea26469706673582212206c8a2ba1df08822dd0e21833ca8e7a0e435ae6a93aad839e87307ba56bbbcad864736f6c63430008180033a2646970667358221220f617c36a3adefd39d5ed28436f441d589c3f59b3ac22682b62dd5b3350637f4964736f6c63430008180033",
			"opcodes": "PUSH1 0x80 PUSH1 0x40 MSTORE CALLVALUE DUP1 ISZERO PUSH2 0xF JUMPI PUSH0 DUP1 REVERT JUMPDEST POP PUSH2 0x160D DUP1 PUSH2 0x1D PUSH0 CODECOPY PUSH0 RETURN INVALID PUSH1 0x80 PUSH1 0x40 MSTORE CALLVALUE DUP1 ISZERO PUSH3 0x10 JUMPI PUSH0 DUP1 REVERT JUMPDEST POP PUSH1 0x4 CALLDATASIZE LT PUSH3 0x50 JUMPI PUSH0 CALLDATALOAD PUSH1 0xE0 SHR DUP1 PUSH4 0xF9D36C8 EQ PUSH3 0x54 JUMPI DUP1 PUSH4 0xD03EEF28 EQ PUSH3 0x74 JUMPI DUP1 PUSH4 0xD7C30A99 EQ PUSH3 0x80 JUMPI DUP1 PUSH4 0xEBB7E7FE EQ PUSH3 0xB6 JUMPI JUMPDEST PUSH0 DUP1 REVERT JUMPDEST PUSH3 0x72 PUSH1 0x4 DUP1 CALLDATASIZE SUB DUP2 ADD SWAP1 PUSH3 0x6C SWAP2 SWAP1 PUSH3 0x4E4 JUMP JUMPDEST PUSH3 0xEC JUMP JUMPDEST STOP JUMPDEST PUSH3 0x7E PUSH3 0x19A JUMP JUMPDEST STOP JUMPDEST PUSH3 0x9E PUSH1 0x4 DUP1 CALLDATASIZE SUB DUP2 ADD SWAP1 PUSH3 0x98 SWAP2 SWAP1 PUSH3 0x55C JUMP JUMPDEST PUSH3 0x228 JUMP JUMPDEST PUSH1 0x40 MLOAD PUSH3 0xAD SWAP2 SWAP1 PUSH3 0x612 JUMP JUMPDEST PUSH1 0x40 MLOAD DUP1 SWAP2 SUB SWAP1 RETURN JUMPDEST PUSH3 0xD4 PUSH1 0x4 DUP1 CALLDATASIZE SUB DUP2 ADD SWAP1 PUSH3 0xCE SWAP2 SWAP1 PUSH3 0x62D JUMP JUMPDEST PUSH3 0x26E JUMP JUMPDEST PUSH1 0x40 MLOAD PUSH3 0xE3 SWAP2 SWAP1 PUSH3 0x6F6 JUMP JUMPDEST PUSH1 0x40 MLOAD DUP1 SWAP2 SUB SWAP1 RETURN JUMPDEST PUSH0 DUP4 DUP2 SLOAD DUP2 LT PUSH3 0x102 JUMPI PUSH3 0x101 PUSH3 0x718 JUMP JUMPDEST JUMPDEST SWAP1 PUSH0 MSTORE PUSH1 0x20 PUSH0 KECCAK256 ADD PUSH0 SWAP1 SLOAD SWAP1 PUSH2 0x100 EXP SWAP1 DIV PUSH20 0xFFFFFFFFFFFFFFFFFFFFFFFFFFFFFFFFFFFFFFFF AND PUSH20 0xFFFFFFFFFFFFFFFFFFFFFFFFFFFFFFFFFFFFFFFF AND PUSH4 0xD44BED72 DUP4 DUP4 PUSH1 0x40 MLOAD DUP4 PUSH4 0xFFFFFFFF AND PUSH1 0xE0 SHL DUP2 MSTORE PUSH1 0x4 ADD PUSH3 0x166 SWAP3 SWAP2 SWAP1 PUSH3 0x756 JUMP JUMPDEST PUSH0 PUSH1 0x40 MLOAD DUP1 DUP4 SUB DUP2 PUSH0 DUP8 DUP1 EXTCODESIZE ISZERO DUP1 ISZERO PUSH3 0x17E JUMPI PUSH0 DUP1 REVERT JUMPDEST POP GAS CALL ISZERO DUP1 ISZERO PUSH3 0x191 JUMPI RETURNDATASIZE PUSH0 DUP1 RETURNDATACOPY RETURNDATASIZE PUSH0 REVERT JUMPDEST POP POP POP POP POP POP POP JUMP JUMPDEST PUSH0 PUSH1 0x40 MLOAD PUSH3 0x1A9 SWAP1 PUSH3 0x335 JUMP JUMPDEST PUSH1 0x40 MLOAD DUP1 SWAP2 SUB SWAP1 PUSH0 CREATE DUP1 ISZERO DUP1 ISZERO PUSH3 0x1C3 JUMPI RETURNDATASIZE PUSH0 DUP1 RETURNDATACOPY RETURNDATASIZE PUSH0 REVERT JUMPDEST POP SWAP1 POP PUSH0 DUP2 SWAP1 DUP1 PUSH1 0x1 DUP2 SLOAD ADD DUP1 DUP3 SSTORE DUP1 SWAP2 POP POP PUSH1 0x1 SWAP1 SUB SWAP1 PUSH0 MSTORE PUSH1 0x20 PUSH0 KECCAK256 ADD PUSH0 SWAP1 SWAP2 SWAP1 SWAP2 SWAP1 SWAP2 PUSH2 0x100 EXP DUP2 SLOAD DUP2 PUSH20 0xFFFFFFFFFFFFFFFFFFFFFFFFFFFFFFFFFFFFFFFF MUL NOT AND SWAP1 DUP4 PUSH20 0xFFFFFFFFFFFFFFFFFFFFFFFFFFFFFFFFFFFFFFFF AND MUL OR SWAP1 SSTORE POP POP JUMP JUMPDEST PUSH0 DUP1 DUP3 DUP2 SLOAD DUP2 LT PUSH3 0x23F JUMPI PUSH3 0x23E PUSH3 0x718 JUMP JUMPDEST JUMPDEST SWAP1 PUSH0 MSTORE PUSH1 0x20 PUSH0 KECCAK256 ADD PUSH0 SWAP1 SLOAD SWAP1 PUSH2 0x100 EXP SWAP1 DIV PUSH20 0xFFFFFFFFFFFFFFFFFFFFFFFFFFFFFFFFFFFFFFFF AND SWAP1 POP SWAP2 SWAP1 POP JUMP JUMPDEST PUSH1 0x60 PUSH0 DUP4 DUP2 SLOAD DUP2 LT PUSH3 0x286 JUMPI PUSH3 0x285 PUSH3 0x718 JUMP JUMPDEST JUMPDEST SWAP1 PUSH0 MSTORE PUSH1 0x20 PUSH0 KECCAK256 ADD PUSH0 SWAP1 SLOAD SWAP1 PUSH2 0x100 EXP SWAP1 DIV PUSH20 0xFFFFFFFFFFFFFFFFFFFFFFFFFFFFFFFFFFFFFFFF AND PUSH20 0xFFFFFFFFFFFFFFFFFFFFFFFFFFFFFFFFFFFFFFFF AND PUSH4 0xCFB025AC DUP4 PUSH1 0x40 MLOAD DUP3 PUSH4 0xFFFFFFFF AND PUSH1 0xE0 SHL DUP2 MSTORE PUSH1 0x4 ADD PUSH3 0x2E8 SWAP2 SWAP1 PUSH3 0x788 JUMP JUMPDEST PUSH0 PUSH1 0x40 MLOAD DUP1 DUP4 SUB DUP2 DUP7 GAS STATICCALL ISZERO DUP1 ISZERO PUSH3 0x303 JUMPI RETURNDATASIZE PUSH0 DUP1 RETURNDATACOPY RETURNDATASIZE PUSH0 REVERT JUMPDEST POP POP POP POP PUSH1 0x40 MLOAD RETURNDATASIZE PUSH0 DUP3 RETURNDATACOPY RETURNDATASIZE PUSH1 0x1F NOT PUSH1 0x1F DUP3 ADD AND DUP3 ADD DUP1 PUSH1 0x40 MSTORE POP DUP2 ADD SWAP1 PUSH3 0x32D SWAP2 SWAP1 PUSH3 0x81F JUMP JUMPDEST SWAP1 POP SWAP3 SWAP2 POP POP JUMP JUMPDEST PUSH2 0xD69 DUP1 PUSH3 0x86F DUP4 CODECOPY ADD SWAP1 JUMP JUMPDEST PUSH0 PUSH1 0x40 MLOAD SWAP1 POP SWAP1 JUMP JUMPDEST PUSH0 DUP1 REVERT JUMPDEST PUSH0 DUP1 REVERT JUMPDEST PUSH0 DUP2 SWAP1 POP SWAP2 SWAP1 POP JUMP JUMPDEST PUSH3 0x368 DUP2 PUSH3 0x354 JUMP JUMPDEST DUP2 EQ PUSH3 0x373 JUMPI PUSH0 DUP1 REVERT JUMPDEST POP JUMP JUMPDEST PUSH0 DUP2 CALLDATALOAD SWAP1 POP PUSH3 0x386 DUP2 PUSH3 0x35D JUMP JUMPDEST SWAP3 SWAP2 POP POP JUMP JUMPDEST PUSH0 DUP1 REVERT JUMPDEST PUSH0 DUP1 REVERT JUMPDEST PUSH0 PUSH1 0x1F NOT PUSH1 0x1F DUP4 ADD AND SWAP1 POP SWAP2 SWAP1 POP JUMP JUMPDEST PUSH32 0x4E487B7100000000000000000000000000000000000000000000000000000000 PUSH0 MSTORE PUSH1 0x41 PUSH1 0x4 MSTORE PUSH1 0x24 PUSH0 REVERT JUMPDEST PUSH3 0x3DC DUP3 PUSH3 0x394 JUMP JUMPDEST DUP2 ADD DUP2 DUP2 LT PUSH8 0xFFFFFFFFFFFFFFFF DUP3 GT OR ISZERO PUSH3 0x3FE JUMPI PUSH3 0x3FD PUSH3 0x3A4 JUMP JUMPDEST JUMPDEST DUP1 PUSH1 0x40 MSTORE POP POP POP JUMP JUMPDEST PUSH0 PUSH3 0x412 PUSH3 0x343 JUMP JUMPDEST SWAP1 POP PUSH3 0x420 DUP3 DUP3 PUSH3 0x3D1 JUMP JUMPDEST SWAP2 SWAP1 POP JUMP JUMPDEST PUSH0 PUSH8 0xFFFFFFFFFFFFFFFF DUP3 GT ISZERO PUSH3 0x442 JUMPI PUSH3 0x441 PUSH3 0x3A4 JUMP JUMPDEST JUMPDEST PUSH3 0x44D DUP3 PUSH3 0x394 JUMP JUMPDEST SWAP1 POP PUSH1 0x20 DUP2 ADD SWAP1 POP SWAP2 SWAP1 POP JUMP JUMPDEST DUP3 DUP2 DUP4 CALLDATACOPY PUSH0 DUP4 DUP4 ADD MSTORE POP POP POP JUMP JUMPDEST PUSH0 PUSH3 0x47E PUSH3 0x478 DUP5 PUSH3 0x425 JUMP JUMPDEST PUSH3 0x407 JUMP JUMPDEST SWAP1 POP DUP3 DUP2 MSTORE PUSH1 0x20 DUP2 ADD DUP5 DUP5 DUP5 ADD GT ISZERO PUSH3 0x49D JUMPI PUSH3 0x49C PUSH3 0x390 JUMP JUMPDEST JUMPDEST PUSH3 0x4AA DUP5 DUP3 DUP6 PUSH3 0x45A JUMP JUMPDEST POP SWAP4 SWAP3 POP POP POP JUMP JUMPDEST PUSH0 DUP3 PUSH1 0x1F DUP4 ADD SLT PUSH3 0x4C9 JUMPI PUSH3 0x4C8 PUSH3 0x38C JUMP JUMPDEST JUMPDEST DUP2 CALLDATALOAD PUSH3 0x4DB DUP5 DUP3 PUSH1 0x20 DUP7 ADD PUSH3 0x468 JUMP JUMPDEST SWAP2 POP POP SWAP3 SWAP2 POP POP JUMP JUMPDEST PUSH0 DUP1 PUSH0 PUSH1 0x60 DUP5 DUP7 SUB SLT ISZERO PUSH3 0x4FE JUMPI PUSH3 0x4FD PUSH3 0x34C JUMP JUMPDEST JUMPDEST PUSH0 PUSH3 0x50D DUP7 DUP3 DUP8 ADD PUSH3 0x376 JUMP JUMPDEST SWAP4 POP POP PUSH1 0x20 DUP5 ADD CALLDATALOAD PUSH8 0xFFFFFFFFFFFFFFFF DUP2 GT ISZERO PUSH3 0x531 JUMPI PUSH3 0x530 PUSH3 0x350 JUMP JUMPDEST JUMPDEST PUSH3 0x53F DUP7 DUP3 DUP8 ADD PUSH3 0x4B2 JUMP JUMPDEST SWAP3 POP POP PUSH1 0x40 PUSH3 0x552 DUP7 DUP3 DUP8 ADD PUSH3 0x376 JUMP JUMPDEST SWAP2 POP POP SWAP3 POP SWAP3 POP SWAP3 JUMP JUMPDEST PUSH0 PUSH1 0x20 DUP3 DUP5 SUB SLT ISZERO PUSH3 0x574 JUMPI PUSH3 0x573 PUSH3 0x34C JUMP JUMPDEST JUMPDEST PUSH0 PUSH3 0x583 DUP5 DUP3 DUP6 ADD PUSH3 0x376 JUMP JUMPDEST SWAP2 POP POP SWAP3 SWAP2 POP POP JUMP JUMPDEST PUSH0 PUSH20 0xFFFFFFFFFFFFFFFFFFFFFFFFFFFFFFFFFFFFFFFF DUP3 AND SWAP1 POP SWAP2 SWAP1 POP JUMP JUMPDEST PUSH0 DUP2 SWAP1 POP SWAP2 SWAP1 POP JUMP JUMPDEST PUSH0 PUSH3 0x5D4 PUSH3 0x5CE PUSH3 0x5C8 DUP5 PUSH3 0x58C JUMP JUMPDEST PUSH3 0x5AB JUMP JUMPDEST PUSH3 0x58C JUMP JUMPDEST SWAP1 POP SWAP2 SWAP1 POP JUMP JUMPDEST PUSH0 PUSH3 0x5E7 DUP3 PUSH3 0x5B4 JUMP JUMPDEST SWAP1 POP SWAP2 SWAP1 POP JUMP JUMPDEST PUSH0 PUSH3 0x5FA DUP3 PUSH3 0x5DB JUMP JUMPDEST SWAP1 POP SWAP2 SWAP1 POP JUMP JUMPDEST PUSH3 0x60C DUP2 PUSH3 0x5EE JUMP JUMPDEST DUP3 MSTORE POP POP JUMP JUMPDEST PUSH0 PUSH1 0x20 DUP3 ADD SWAP1 POP PUSH3 0x627 PUSH0 DUP4 ADD DUP5 PUSH3 0x601 JUMP JUMPDEST SWAP3 SWAP2 POP POP JUMP JUMPDEST PUSH0 DUP1 PUSH1 0x40 DUP4 DUP6 SUB SLT ISZERO PUSH3 0x646 JUMPI PUSH3 0x645 PUSH3 0x34C JUMP JUMPDEST JUMPDEST PUSH0 PUSH3 0x655 DUP6 DUP3 DUP7 ADD PUSH3 0x376 JUMP JUMPDEST SWAP3 POP POP PUSH1 0x20 PUSH3 0x668 DUP6 DUP3 DUP7 ADD PUSH3 0x376 JUMP JUMPDEST SWAP2 POP POP SWAP3 POP SWAP3 SWAP1 POP JUMP JUMPDEST PUSH0 DUP2 MLOAD SWAP1 POP SWAP2 SWAP1 POP JUMP JUMPDEST PUSH0 DUP3 DUP3 MSTORE PUSH1 0x20 DUP3 ADD SWAP1 POP SWAP3 SWAP2 POP POP JUMP JUMPDEST PUSH0 JUMPDEST DUP4 DUP2 LT ISZERO PUSH3 0x6AB JUMPI DUP1 DUP3 ADD MLOAD DUP2 DUP5 ADD MSTORE PUSH1 0x20 DUP2 ADD SWAP1 POP PUSH3 0x68E JUMP JUMPDEST PUSH0 DUP5 DUP5 ADD MSTORE POP POP POP POP JUMP JUMPDEST PUSH0 PUSH3 0x6C2 DUP3 PUSH3 0x672 JUMP JUMPDEST PUSH3 0x6CE DUP2 DUP6 PUSH3 0x67C JUMP JUMPDEST SWAP4 POP PUSH3 0x6E0 DUP2 DUP6 PUSH1 0x20 DUP7 ADD PUSH3 0x68C JUMP JUMPDEST PUSH3 0x6EB DUP2 PUSH3 0x394 JUMP JUMPDEST DUP5 ADD SWAP2 POP POP SWAP3 SWAP2 POP POP JUMP JUMPDEST PUSH0 PUSH1 0x20 DUP3 ADD SWAP1 POP DUP2 DUP2 SUB PUSH0 DUP4 ADD MSTORE PUSH3 0x710 DUP2 DUP5 PUSH3 0x6B6 JUMP JUMPDEST SWAP1 POP SWAP3 SWAP2 POP POP JUMP JUMPDEST PUSH32 0x4E487B7100000000000000000000000000000000000000000000000000000000 PUSH0 MSTORE PUSH1 0x32 PUSH1 0x4 MSTORE PUSH1 0x24 PUSH0 REVERT JUMPDEST PUSH3 0x750 DUP2 PUSH3 0x354 JUMP JUMPDEST DUP3 MSTORE POP POP JUMP JUMPDEST PUSH0 PUSH1 0x40 DUP3 ADD SWAP1 POP DUP2 DUP2 SUB PUSH0 DUP4 ADD MSTORE PUSH3 0x770 DUP2 DUP6 PUSH3 0x6B6 JUMP JUMPDEST SWAP1 POP PUSH3 0x781 PUSH1 0x20 DUP4 ADD DUP5 PUSH3 0x745 JUMP JUMPDEST SWAP4 SWAP3 POP POP POP JUMP JUMPDEST PUSH0 PUSH1 0x20 DUP3 ADD SWAP1 POP PUSH3 0x79D PUSH0 DUP4 ADD DUP5 PUSH3 0x745 JUMP JUMPDEST SWAP3 SWAP2 POP POP JUMP JUMPDEST PUSH0 PUSH3 0x7B9 PUSH3 0x7B3 DUP5 PUSH3 0x425 JUMP JUMPDEST PUSH3 0x407 JUMP JUMPDEST SWAP1 POP DUP3 DUP2 MSTORE PUSH1 0x20 DUP2 ADD DUP5 DUP5 DUP5 ADD GT ISZERO PUSH3 0x7D8 JUMPI PUSH3 0x7D7 PUSH3 0x390 JUMP JUMPDEST JUMPDEST PUSH3 0x7E5 DUP5 DUP3 DUP6 PUSH3 0x68C JUMP JUMPDEST POP SWAP4 SWAP3 POP POP POP JUMP JUMPDEST PUSH0 DUP3 PUSH1 0x1F DUP4 ADD SLT PUSH3 0x804 JUMPI PUSH3 0x803 PUSH3 0x38C JUMP JUMPDEST JUMPDEST DUP2 MLOAD PUSH3 0x816 DUP5 DUP3 PUSH1 0x20 DUP7 ADD PUSH3 0x7A3 JUMP JUMPDEST SWAP2 POP POP SWAP3 SWAP2 POP POP JUMP JUMPDEST PUSH0 PUSH1 0x20 DUP3 DUP5 SUB SLT ISZERO PUSH3 0x837 JUMPI PUSH3 0x836 PUSH3 0x34C JUMP JUMPDEST JUMPDEST PUSH0 DUP3 ADD MLOAD PUSH8 0xFFFFFFFFFFFFFFFF DUP2 GT ISZERO PUSH3 0x857 JUMPI PUSH3 0x856 PUSH3 0x350 JUMP JUMPDEST JUMPDEST PUSH3 0x865 DUP5 DUP3 DUP6 ADD PUSH3 0x7ED JUMP JUMPDEST SWAP2 POP POP SWAP3 SWAP2 POP POP JUMP INVALID PUSH1 0x80 PUSH1 0x40 MSTORE PUSH1 0x40 MLOAD DUP1 PUSH1 0x40 ADD PUSH1 0x40 MSTORE DUP1 PUSH1 0x7 DUP2 MSTORE PUSH1 0x20 ADD PUSH32 0x64656661756C7400000000000000000000000000000000000000000000000000 DUP2 MSTORE POP PUSH0 SWAP1 DUP2 PUSH3 0x49 SWAP2 SWAP1 PUSH3 0x301 JUMP JUMPDEST POP CALLVALUE DUP1 ISZERO PUSH3 0x56 JUMPI PUSH0 DUP1 REVERT JUMPDEST POP CALLER PUSH1 0x1 PUSH0 PUSH2 0x100 EXP DUP2 SLOAD DUP2 PUSH20 0xFFFFFFFFFFFFFFFFFFFFFFFFFFFFFFFFFFFFFFFF MUL NOT AND SWAP1 DUP4 PUSH20 0xFFFFFFFFFFFFFFFFFFFFFFFFFFFFFFFFFFFFFFFF AND MUL OR SWAP1 SSTORE POP PUSH3 0x3E5 JUMP JUMPDEST PUSH0 DUP2 MLOAD SWAP1 POP SWAP2 SWAP1 POP JUMP JUMPDEST PUSH32 0x4E487B7100000000000000000000000000000000000000000000000000000000 PUSH0 MSTORE PUSH1 0x41 PUSH1 0x4 MSTORE PUSH1 0x24 PUSH0 REVERT JUMPDEST PUSH32 0x4E487B7100000000000000000000000000000000000000000000000000000000 PUSH0 MSTORE PUSH1 0x22 PUSH1 0x4 MSTORE PUSH1 0x24 PUSH0 REVERT JUMPDEST PUSH0 PUSH1 0x2 DUP3 DIV SWAP1 POP PUSH1 0x1 DUP3 AND DUP1 PUSH3 0x119 JUMPI PUSH1 0x7F DUP3 AND SWAP2 POP JUMPDEST PUSH1 0x20 DUP3 LT DUP2 SUB PUSH3 0x12F JUMPI PUSH3 0x12E PUSH3 0xD4 JUMP JUMPDEST JUMPDEST POP SWAP2 SWAP1 POP JUMP JUMPDEST PUSH0 DUP2 SWAP1 POP DUP2 PUSH0 MSTORE PUSH1 0x20 PUSH0 KECCAK256 SWAP1 POP SWAP2 SWAP1 POP JUMP JUMPDEST PUSH0 PUSH1 0x20 PUSH1 0x1F DUP4 ADD DIV SWAP1 POP SWAP2 SWAP1 POP JUMP JUMPDEST PUSH0 DUP3 DUP3 SHL SWAP1 POP SWAP3 SWAP2 POP POP JUMP JUMPDEST PUSH0 PUSH1 0x8 DUP4 MUL PUSH3 0x193 PUSH32 0xFFFFFFFFFFFFFFFFFFFFFFFFFFFFFFFFFFFFFFFFFFFFFFFFFFFFFFFFFFFFFFFF DUP3 PUSH3 0x156 JUMP JUMPDEST PUSH3 0x19F DUP7 DUP4 PUSH3 0x156 JUMP JUMPDEST SWAP6 POP DUP1 NOT DUP5 AND SWAP4 POP DUP1 DUP7 AND DUP5 OR SWAP3 POP POP POP SWAP4 SWAP3 POP POP POP JUMP JUMPDEST PUSH0 DUP2 SWAP1 POP SWAP2 SWAP1 POP JUMP JUMPDEST PUSH0 DUP2 SWAP1 POP SWAP2 SWAP1 POP JUMP JUMPDEST PUSH0 PUSH3 0x1E9 PUSH3 0x1E3 PUSH3 0x1DD DUP5 PUSH3 0x1B7 JUMP JUMPDEST PUSH3 0x1C0 JUMP JUMPDEST PUSH3 0x1B7 JUMP JUMPDEST SWAP1 POP SWAP2 SWAP1 POP JUMP JUMPDEST PUSH0 DUP2 SWAP1 POP SWAP2 SWAP1 POP JUMP JUMPDEST PUSH3 0x204 DUP4 PUSH3 0x1C9 JUMP JUMPDEST PUSH3 0x21C PUSH3 0x213 DUP3 PUSH3 0x1F0 JUMP JUMPDEST DUP5 DUP5 SLOAD PUSH3 0x162 JUMP JUMPDEST DUP3 SSTORE POP POP POP POP JUMP JUMPDEST PUSH0 SWAP1 JUMP JUMPDEST PUSH3 0x232 PUSH3 0x224 JUMP JUMPDEST PUSH3 0x23F DUP2 DUP5 DUP5 PUSH3 0x1F9 JUMP JUMPDEST POP POP POP JUMP JUMPDEST JUMPDEST DUP2 DUP2 LT ISZERO PUSH3 0x266 JUMPI PUSH3 0x25A PUSH0 DUP3 PUSH3 0x228 JUMP JUMPDEST PUSH1 0x1 DUP2 ADD SWAP1 POP PUSH3 0x245 JUMP JUMPDEST POP POP JUMP JUMPDEST PUSH1 0x1F DUP3 GT ISZERO PUSH3 0x2B5 JUMPI PUSH3 0x27F DUP2 PUSH3 0x135 JUMP JUMPDEST PUSH3 0x28A DUP5 PUSH3 0x147 JUMP JUMPDEST DUP2 ADD PUSH1 0x20 DUP6 LT ISZERO PUSH3 0x29A JUMPI DUP2 SWAP1 POP JUMPDEST PUSH3 0x2B2 PUSH3 0x2A9 DUP6 PUSH3 0x147 JUMP JUMPDEST DUP4 ADD DUP3 PUSH3 0x244 JUMP JUMPDEST POP POP JUMPDEST POP POP POP JUMP JUMPDEST PUSH0 DUP3 DUP3 SHR SWAP1 POP SWAP3 SWAP2 POP POP JUMP JUMPDEST PUSH0 PUSH3 0x2D7 PUSH0 NOT DUP5 PUSH1 0x8 MUL PUSH3 0x2BA JUMP JUMPDEST NOT DUP1 DUP4 AND SWAP2 POP POP SWAP3 SWAP2 POP POP JUMP JUMPDEST PUSH0 PUSH3 0x2F1 DUP4 DUP4 PUSH3 0x2C6 JUMP JUMPDEST SWAP2 POP DUP3 PUSH1 0x2 MUL DUP3 OR SWAP1 POP SWAP3 SWAP2 POP POP JUMP JUMPDEST PUSH3 0x30C DUP3 PUSH3 0x9D JUMP JUMPDEST PUSH8 0xFFFFFFFFFFFFFFFF DUP2 GT ISZERO PUSH3 0x328 JUMPI PUSH3 0x327 PUSH3 0xA7 JUMP JUMPDEST JUMPDEST PUSH3 0x334 DUP3 SLOAD PUSH3 0x101 JUMP JUMPDEST PUSH3 0x341 DUP3 DUP3 DUP6 PUSH3 0x26A JUMP JUMPDEST PUSH0 PUSH1 0x20 SWAP1 POP PUSH1 0x1F DUP4 GT PUSH1 0x1 DUP2 EQ PUSH3 0x377 JUMPI PUSH0 DUP5 ISZERO PUSH3 0x362 JUMPI DUP3 DUP8 ADD MLOAD SWAP1 POP JUMPDEST PUSH3 0x36E DUP6 DUP3 PUSH3 0x2E4 JUMP JUMPDEST DUP7 SSTORE POP PUSH3 0x3DD JUMP JUMPDEST PUSH1 0x1F NOT DUP5 AND PUSH3 0x387 DUP7 PUSH3 0x135 JUMP JUMPDEST PUSH0 JUMPDEST DUP3 DUP2 LT ISZERO PUSH3 0x3B0 JUMPI DUP5 DUP10 ADD MLOAD DUP3 SSTORE PUSH1 0x1 DUP3 ADD SWAP2 POP PUSH1 0x20 DUP6 ADD SWAP5 POP PUSH1 0x20 DUP2 ADD SWAP1 POP PUSH3 0x389 JUMP JUMPDEST DUP7 DUP4 LT ISZERO PUSH3 0x3D0 JUMPI DUP5 DUP10 ADD MLOAD PUSH3 0x3CC PUSH1 0x1F DUP10 AND DUP3 PUSH3 0x2C6 JUMP JUMPDEST DUP4 SSTORE POP JUMPDEST PUSH1 0x1 PUSH1 0x2 DUP9 MUL ADD DUP9 SSTORE POP POP POP JUMPDEST POP POP POP POP POP POP JUMP JUMPDEST PUSH2 0x976 DUP1 PUSH3 0x3F3 PUSH0 CODECOPY PUSH0 RETURN INVALID PUSH1 0x80 PUSH1 0x40 MSTORE CALLVALUE DUP1 ISZERO PUSH2 0xF JUMPI PUSH0 DUP1 REVERT JUMPDEST POP PUSH1 0x4 CALLDATASIZE LT PUSH2 0x34 JUMPI PUSH0 CALLDATALOAD PUSH1 0xE0 SHR DUP1 PUSH4 0xCFB025AC EQ PUSH2 0x38 JUMPI DUP1 PUSH4 0xD44BED72 EQ PUSH2 0x68 JUMPI JUMPDEST PUSH0 DUP1 REVERT JUMPDEST PUSH2 0x52 PUSH1 0x4 DUP1 CALLDATASIZE SUB DUP2 ADD SWAP1 PUSH2 0x4D SWAP2 SWAP1 PUSH2 0x397 JUMP JUMPDEST PUSH2 0x84 JUMP JUMPDEST PUSH1 0x40 MLOAD PUSH2 0x5F SWAP2 SWAP1 PUSH2 0x44C JUMP JUMPDEST PUSH1 0x40 MLOAD DUP1 SWAP2 SUB SWAP1 RETURN JUMPDEST PUSH2 0x82 PUSH1 0x4 DUP1 CALLDATASIZE SUB DUP2 ADD SWAP1 PUSH2 0x7D SWAP2 SWAP1 PUSH2 0x598 JUMP JUMPDEST PUSH2 0x278 JUMP JUMPDEST STOP JUMPDEST PUSH1 0x60 PUSH0 PUSH1 0x3 PUSH0 DUP5 DUP2 MSTORE PUSH1 0x20 ADD SWAP1 DUP2 MSTORE PUSH1 0x20 ADD PUSH0 KECCAK256 PUSH1 0x40 MLOAD DUP1 PUSH1 0x60 ADD PUSH1 0x40 MSTORE SWAP1 DUP2 PUSH0 DUP3 ADD SLOAD DUP2 MSTORE PUSH1 0x20 ADD PUSH1 0x1 DUP3 ADD DUP1 SLOAD PUSH2 0xBC SWAP1 PUSH2 0x61F JUMP JUMPDEST DUP1 PUSH1 0x1F ADD PUSH1 0x20 DUP1 SWAP2 DIV MUL PUSH1 0x20 ADD PUSH1 0x40 MLOAD SWAP1 DUP2 ADD PUSH1 0x40 MSTORE DUP1 SWAP3 SWAP2 SWAP1 DUP2 DUP2 MSTORE PUSH1 0x20 ADD DUP3 DUP1 SLOAD PUSH2 0xE8 SWAP1 PUSH2 0x61F JUMP JUMPDEST DUP1 ISZERO PUSH2 0x133 JUMPI DUP1 PUSH1 0x1F LT PUSH2 0x10A JUMPI PUSH2 0x100 DUP1 DUP4 SLOAD DIV MUL DUP4 MSTORE SWAP2 PUSH1 0x20 ADD SWAP2 PUSH2 0x133 JUMP JUMPDEST DUP3 ADD SWAP2 SWAP1 PUSH0 MSTORE PUSH1 0x20 PUSH0 KECCAK256 SWAP1 JUMPDEST DUP2 SLOAD DUP2 MSTORE SWAP1 PUSH1 0x1 ADD SWAP1 PUSH1 0x20 ADD DUP1 DUP4 GT PUSH2 0x116 JUMPI DUP3 SWAP1 SUB PUSH1 0x1F AND DUP3 ADD SWAP2 JUMPDEST POP POP POP POP POP DUP2 MSTORE PUSH1 0x20 ADD PUSH1 0x2 DUP3 ADD PUSH0 SWAP1 SLOAD SWAP1 PUSH2 0x100 EXP SWAP1 DIV PUSH20 0xFFFFFFFFFFFFFFFFFFFFFFFFFFFFFFFFFFFFFFFF AND PUSH20 0xFFFFFFFFFFFFFFFFFFFFFFFFFFFFFFFFFFFFFFFF AND PUSH20 0xFFFFFFFFFFFFFFFFFFFFFFFFFFFFFFFFFFFFFFFF AND DUP2 MSTORE POP POP SWAP1 POP PUSH0 PUSH20 0xFFFFFFFFFFFFFFFFFFFFFFFFFFFFFFFFFFFFFFFF AND DUP2 PUSH1 0x40 ADD MLOAD PUSH20 0xFFFFFFFFFFFFFFFFFFFFFFFFFFFFFFFFFFFFFFFF AND SUB PUSH2 0x262 JUMPI PUSH2 0x25A PUSH0 DUP1 SLOAD PUSH2 0x1D9 SWAP1 PUSH2 0x61F JUMP JUMPDEST DUP1 PUSH1 0x1F ADD PUSH1 0x20 DUP1 SWAP2 DIV MUL PUSH1 0x20 ADD PUSH1 0x40 MLOAD SWAP1 DUP2 ADD PUSH1 0x40 MSTORE DUP1 SWAP3 SWAP2 SWAP1 DUP2 DUP2 MSTORE PUSH1 0x20 ADD DUP3 DUP1 SLOAD PUSH2 0x205 SWAP1 PUSH2 0x61F JUMP JUMPDEST DUP1 ISZERO PUSH2 0x250 JUMPI DUP1 PUSH1 0x1F LT PUSH2 0x227 JUMPI PUSH2 0x100 DUP1 DUP4 SLOAD DIV MUL DUP4 MSTORE SWAP2 PUSH1 0x20 ADD SWAP2 PUSH2 0x250 JUMP JUMPDEST DUP3 ADD SWAP2 SWAP1 PUSH0 MSTORE PUSH1 0x20 PUSH0 KECCAK256 SWAP1 JUMPDEST DUP2 SLOAD DUP2 MSTORE SWAP1 PUSH1 0x1 ADD SWAP1 PUSH1 0x20 ADD DUP1 DUP4 GT PUSH2 0x233 JUMPI DUP3 SWAP1 SUB PUSH1 0x1F AND DUP3 ADD SWAP2 JUMPDEST POP POP POP POP POP PUSH2 0x32A JUMP JUMPDEST SWAP2 POP POP PUSH2 0x273 JUMP JUMPDEST PUSH2 0x26F DUP2 PUSH1 0x20 ADD MLOAD PUSH2 0x32A JUMP JUMPDEST SWAP2 POP POP JUMPDEST SWAP2 SWAP1 POP JUMP JUMPDEST PUSH0 PUSH1 0x40 MLOAD DUP1 PUSH1 0x60 ADD PUSH1 0x40 MSTORE DUP1 DUP4 DUP2 MSTORE PUSH1 0x20 ADD DUP5 DUP2 MSTORE PUSH1 0x20 ADD CALLER PUSH20 0xFFFFFFFFFFFFFFFFFFFFFFFFFFFFFFFFFFFFFFFF AND DUP2 MSTORE POP SWAP1 POP DUP1 PUSH1 0x3 PUSH0 DUP5 DUP2 MSTORE PUSH1 0x20 ADD SWAP1 DUP2 MSTORE PUSH1 0x20 ADD PUSH0 KECCAK256 PUSH0 DUP3 ADD MLOAD DUP2 PUSH0 ADD SSTORE PUSH1 0x20 DUP3 ADD MLOAD DUP2 PUSH1 0x1 ADD SWAP1 DUP2 PUSH2 0x2DB SWAP2 SWAP1 PUSH2 0x7EC JUMP JUMPDEST POP PUSH1 0x40 DUP3 ADD MLOAD DUP2 PUSH1 0x2 ADD PUSH0 PUSH2 0x100 EXP DUP2 SLOAD DUP2 PUSH20 0xFFFFFFFFFFFFFFFFFFFFFFFFFFFFFFFFFFFFFFFF MUL NOT AND SWAP1 DUP4 PUSH20 0xFFFFFFFFFFFFFFFFFFFFFFFFFFFFFFFFFFFFFFFF AND MUL OR SWAP1 SSTORE POP SWAP1 POP POP POP POP POP JUMP JUMPDEST PUSH1 0x60 DUP2 PUSH1 0x40 MLOAD PUSH1 0x20 ADD PUSH2 0x33D SWAP2 SWAP1 PUSH2 0x91B JUMP JUMPDEST PUSH1 0x40 MLOAD PUSH1 0x20 DUP2 DUP4 SUB SUB DUP2 MSTORE SWAP1 PUSH1 0x40 MSTORE SWAP1 POP SWAP2 SWAP1 POP JUMP JUMPDEST PUSH0 PUSH1 0x40 MLOAD SWAP1 POP SWAP1 JUMP JUMPDEST PUSH0 DUP1 REVERT JUMPDEST PUSH0 DUP1 REVERT JUMPDEST PUSH0 DUP2 SWAP1 POP SWAP2 SWAP1 POP JUMP JUMPDEST PUSH2 0x376 DUP2 PUSH2 0x364 JUMP JUMPDEST DUP2 EQ PUSH2 0x380 JUMPI PUSH0 DUP1 REVERT JUMPDEST POP JUMP JUMPDEST PUSH0 DUP2 CALLDATALOAD SWAP1 POP PUSH2 0x391 DUP2 PUSH2 0x36D JUMP JUMPDEST SWAP3 SWAP2 POP POP JUMP JUMPDEST PUSH0 PUSH1 0x20 DUP3 DUP5 SUB SLT ISZERO PUSH2 0x3AC JUMPI PUSH2 0x3AB PUSH2 0x35C JUMP JUMPDEST JUMPDEST PUSH0 PUSH2 0x3B9 DUP5 DUP3 DUP6 ADD PUSH2 0x383 JUMP JUMPDEST SWAP2 POP POP SWAP3 SWAP2 POP POP JUMP JUMPDEST PUSH0 DUP2 MLOAD SWAP1 POP SWAP2 SWAP1 POP JUMP JUMPDEST PUSH0 DUP3 DUP3 MSTORE PUSH1 0x20 DUP3 ADD SWAP1 POP SWAP3 SWAP2 POP POP JUMP JUMPDEST PUSH0 JUMPDEST DUP4 DUP2 LT ISZERO PUSH2 0x3F9 JUMPI DUP1 DUP3 ADD MLOAD DUP2 DUP5 ADD MSTORE PUSH1 0x20 DUP2 ADD SWAP1 POP PUSH2 0x3DE JUMP JUMPDEST PUSH0 DUP5 DUP5 ADD MSTORE POP POP POP POP JUMP JUMPDEST PUSH0 PUSH1 0x1F NOT PUSH1 0x1F DUP4 ADD AND SWAP1 POP SWAP2 SWAP1 POP JUMP JUMPDEST PUSH0 PUSH2 0x41E DUP3 PUSH2 0x3C2 JUMP JUMPDEST PUSH2 0x428 DUP2 DUP6 PUSH2 0x3CC JUMP JUMPDEST SWAP4 POP PUSH2 0x438 DUP2 DUP6 PUSH1 0x20 DUP7 ADD PUSH2 0x3DC JUMP JUMPDEST PUSH2 0x441 DUP2 PUSH2 0x404 JUMP JUMPDEST DUP5 ADD SWAP2 POP POP SWAP3 SWAP2 POP POP JUMP JUMPDEST PUSH0 PUSH1 0x20 DUP3 ADD SWAP1 POP DUP2 DUP2 SUB PUSH0 DUP4 ADD MSTORE PUSH2 0x464 DUP2 DUP5 PUSH2 0x414 JUMP JUMPDEST SWAP1 POP SWAP3 SWAP2 POP POP JUMP JUMPDEST PUSH0 DUP1 REVERT JUMPDEST PUSH0 DUP1 REVERT JUMPDEST PUSH32 0x4E487B7100000000000000000000000000000000000000000000000000000000 PUSH0 MSTORE PUSH1 0x41 PUSH1 0x4 MSTORE PUSH1 0x24 PUSH0 REVERT JUMPDEST PUSH2 0x4AA DUP3 PUSH2 0x404 JUMP JUMPDEST DUP2 ADD DUP2 DUP2 LT PUSH8 0xFFFFFFFFFFFFFFFF DUP3 GT OR ISZERO PUSH2 0x4C9 JUMPI PUSH2 0x4C8 PUSH2 0x474 JUMP JUMPDEST JUMPDEST DUP1 PUSH1 0x40 MSTORE POP POP POP JUMP JUMPDEST PUSH0 PUSH2 0x4DB PUSH2 0x353 JUMP JUMPDEST SWAP1 POP PUSH2 0x4E7 DUP3 DUP3 PUSH2 0x4A1 JUMP JUMPDEST SWAP2 SWAP1 POP JUMP JUMPDEST PUSH0 PUSH8 0xFFFFFFFFFFFFFFFF DUP3 GT ISZERO PUSH2 0x506 JUMPI PUSH2 0x505 PUSH2 0x474 JUMP JUMPDEST JUMPDEST PUSH2 0x50F DUP3 PUSH2 0x404 JUMP JUMPDEST SWAP1 POP PUSH1 0x20 DUP2 ADD SWAP1 POP SWAP2 SWAP1 POP JUMP JUMPDEST DUP3 DUP2 DUP4 CALLDATACOPY PUSH0 DUP4 DUP4 ADD MSTORE POP POP POP JUMP JUMPDEST PUSH0 PUSH2 0x53C PUSH2 0x537 DUP5 PUSH2 0x4EC JUMP JUMPDEST PUSH2 0x4D2 JUMP JUMPDEST SWAP1 POP DUP3 DUP2 MSTORE PUSH1 0x20 DUP2 ADD DUP5 DUP5 DUP5 ADD GT ISZERO PUSH2 0x558 JUMPI PUSH2 0x557 PUSH2 0x470 JUMP JUMPDEST JUMPDEST PUSH2 0x563 DUP5 DUP3 DUP6 PUSH2 0x51C JUMP JUMPDEST POP SWAP4 SWAP3 POP POP POP JUMP JUMPDEST PUSH0 DUP3 PUSH1 0x1F DUP4 ADD SLT PUSH2 0x57F JUMPI PUSH2 0x57E PUSH2 0x46C JUMP JUMPDEST JUMPDEST DUP2 CALLDATALOAD PUSH2 0x58F DUP5 DUP3 PUSH1 0x20 DUP7 ADD PUSH2 0x52A JUMP JUMPDEST SWAP2 POP POP SWAP3 SWAP2 POP POP JUMP JUMPDEST PUSH0 DUP1 PUSH1 0x40 DUP4 DUP6 SUB SLT ISZERO PUSH2 0x5AE JUMPI PUSH2 0x5AD PUSH2 0x35C JUMP JUMPDEST JUMPDEST PUSH0 DUP4 ADD CALLDATALOAD PUSH8 0xFFFFFFFFFFFFFFFF DUP2 GT ISZERO PUSH2 0x5CB JUMPI PUSH2 0x5CA PUSH2 0x360 JUMP JUMPDEST JUMPDEST PUSH2 0x5D7 DUP6 DUP3 DUP7 ADD PUSH2 0x56B JUMP JUMPDEST SWAP3 POP POP PUSH1 0x20 PUSH2 0x5E8 DUP6 DUP3 DUP7 ADD PUSH2 0x383 JUMP JUMPDEST SWAP2 POP POP SWAP3 POP SWAP3 SWAP1 POP JUMP JUMPDEST PUSH32 0x4E487B7100000000000000000000000000000000000000000000000000000000 PUSH0 MSTORE PUSH1 0x22 PUSH1 0x4 MSTORE PUSH1 0x24 PUSH0 REVERT JUMPDEST PUSH0 PUSH1 0x2 DUP3 DIV SWAP1 POP PUSH1 0x1 DUP3 AND DUP1 PUSH2 0x636 JUMPI PUSH1 0x7F DUP3 AND SWAP2 POP JUMPDEST PUSH1 0x20 DUP3 LT DUP2 SUB PUSH2 0x649 JUMPI PUSH2 0x648 PUSH2 0x5F2 JUMP JUMPDEST JUMPDEST POP SWAP2 SWAP1 POP JUMP JUMPDEST PUSH0 DUP2 SWAP1 POP DUP2 PUSH0 MSTORE PUSH1 0x20 PUSH0 KECCAK256 SWAP1 POP SWAP2 SWAP1 POP JUMP JUMPDEST PUSH0 PUSH1 0x20 PUSH1 0x1F DUP4 ADD DIV SWAP1 POP SWAP2 SWAP1 POP JUMP JUMPDEST PUSH0 DUP3 DUP3 SHL SWAP1 POP SWAP3 SWAP2 POP POP JUMP JUMPDEST PUSH0 PUSH1 0x8 DUP4 MUL PUSH2 0x6AB PUSH32 0xFFFFFFFFFFFFFFFFFFFFFFFFFFFFFFFFFFFFFFFFFFFFFFFFFFFFFFFFFFFFFFFF DUP3 PUSH2 0x670 JUMP JUMPDEST PUSH2 0x6B5 DUP7 DUP4 PUSH2 0x670 JUMP JUMPDEST SWAP6 POP DUP1 NOT DUP5 AND SWAP4 POP DUP1 DUP7 AND DUP5 OR SWAP3 POP POP POP SWAP4 SWAP3 POP POP POP JUMP JUMPDEST PUSH0 DUP2 SWAP1 POP SWAP2 SWAP1 POP JUMP JUMPDEST PUSH0 PUSH2 0x6F0 PUSH2 0x6EB PUSH2 0x6E6 DUP5 PUSH2 0x364 JUMP JUMPDEST PUSH2 0x6CD JUMP JUMPDEST PUSH2 0x364 JUMP JUMPDEST SWAP1 POP SWAP2 SWAP1 POP JUMP JUMPDEST PUSH0 DUP2 SWAP1 POP SWAP2 SWAP1 POP JUMP JUMPDEST PUSH2 0x709 DUP4 PUSH2 0x6D6 JUMP JUMPDEST PUSH2 0x71D PUSH2 0x715 DUP3 PUSH2 0x6F7 JUMP JUMPDEST DUP5 DUP5 SLOAD PUSH2 0x67C JUMP JUMPDEST DUP3 SSTORE POP POP POP POP JUMP JUMPDEST PUSH0 SWAP1 JUMP JUMPDEST PUSH2 0x731 PUSH2 0x725 JUMP JUMPDEST PUSH2 0x73C DUP2 DUP5 DUP5 PUSH2 0x700 JUMP JUMPDEST POP POP POP JUMP JUMPDEST JUMPDEST DUP2 DUP2 LT ISZERO PUSH2 0x75F JUMPI PUSH2 0x754 PUSH0 DUP3 PUSH2 0x729 JUMP JUMPDEST PUSH1 0x1 DUP2 ADD SWAP1 POP PUSH2 0x742 JUMP JUMPDEST POP POP JUMP JUMPDEST PUSH1 0x1F DUP3 GT ISZERO PUSH2 0x7A4 JUMPI PUSH2 0x775 DUP2 PUSH2 0x64F JUMP JUMPDEST PUSH2 0x77E DUP5 PUSH2 0x661 JUMP JUMPDEST DUP2 ADD PUSH1 0x20 DUP6 LT ISZERO PUSH2 0x78D JUMPI DUP2 SWAP1 POP JUMPDEST PUSH2 0x7A1 PUSH2 0x799 DUP6 PUSH2 0x661 JUMP JUMPDEST DUP4 ADD DUP3 PUSH2 0x741 JUMP JUMPDEST POP POP JUMPDEST POP POP POP JUMP JUMPDEST PUSH0 DUP3 DUP3 SHR SWAP1 POP SWAP3 SWAP2 POP POP JUMP JUMPDEST PUSH0 PUSH2 0x7C4 PUSH0 NOT DUP5 PUSH1 0x8 MUL PUSH2 0x7A9 JUMP JUMPDEST NOT DUP1 DUP4 AND SWAP2 POP POP SWAP3 SWAP2 POP POP JUMP JUMPDEST PUSH0 PUSH2 0x7DC DUP4 DUP4 PUSH2 0x7B5 JUMP JUMPDEST SWAP2 POP DUP3 PUSH1 0x2 MUL DUP3 OR SWAP1 POP SWAP3 SWAP2 POP POP JUMP JUMPDEST PUSH2 0x7F5 DUP3 PUSH2 0x3C2 JUMP JUMPDEST PUSH8 0xFFFFFFFFFFFFFFFF DUP2 GT ISZERO PUSH2 0x80E JUMPI PUSH2 0x80D PUSH2 0x474 JUMP JUMPDEST JUMPDEST PUSH2 0x818 DUP3 SLOAD PUSH2 0x61F JUMP JUMPDEST PUSH2 0x823 DUP3 DUP3 DUP6 PUSH2 0x763 JUMP JUMPDEST PUSH0 PUSH1 0x20 SWAP1 POP PUSH1 0x1F DUP4 GT PUSH1 0x1 DUP2 EQ PUSH2 0x854 JUMPI PUSH0 DUP5 ISZERO PUSH2 0x842 JUMPI DUP3 DUP8 ADD MLOAD SWAP1 POP JUMPDEST PUSH2 0x84C DUP6 DUP3 PUSH2 0x7D1 JUMP JUMPDEST DUP7 SSTORE POP PUSH2 0x8B3 JUMP JUMPDEST PUSH1 0x1F NOT DUP5 AND PUSH2 0x862 DUP7 PUSH2 0x64F JUMP JUMPDEST PUSH0 JUMPDEST DUP3 DUP2 LT ISZERO PUSH2 0x889 JUMPI DUP5 DUP10 ADD MLOAD DUP3 SSTORE PUSH1 0x1 DUP3 ADD SWAP2 POP PUSH1 0x20 DUP6 ADD SWAP5 POP PUSH1 0x20 DUP2 ADD SWAP1 POP PUSH2 0x864 JUMP JUMPDEST DUP7 DUP4 LT ISZERO PUSH2 0x8A6 JUMPI DUP5 DUP10 ADD MLOAD PUSH2 0x8A2 PUSH1 0x1F DUP10 AND DUP3 PUSH2 0x7B5 JUMP JUMPDEST DUP4 SSTORE POP JUMPDEST PUSH1 0x1 PUSH1 0x2 DUP9 MUL ADD DUP9 SSTORE POP POP POP JUMPDEST POP POP POP POP POP POP JUMP JUMPDEST PUSH32 0x68656C6C6F20776F726C64203A00000000000000000000000000000000000000 DUP2 MSTORE POP JUMP JUMPDEST PUSH0 DUP2 SWAP1 POP SWAP3 SWAP2 POP POP JUMP JUMPDEST PUSH0 PUSH2 0x8F5 DUP3 PUSH2 0x3C2 JUMP JUMPDEST PUSH2 0x8FF DUP2 DUP6 PUSH2 0x8E1 JUMP JUMPDEST SWAP4 POP PUSH2 0x90F DUP2 DUP6 PUSH1 0x20 DUP7 ADD PUSH2 0x3DC JUMP JUMPDEST DUP1 DUP5 ADD SWAP2 POP POP SWAP3 SWAP2 POP POP JUMP JUMPDEST PUSH0 PUSH2 0x925 DUP3 PUSH2 0x8BB JUMP JUMPDEST PUSH1 0xD DUP3 ADD SWAP2 POP PUSH2 0x935 DUP3 DUP5 PUSH2 0x8EB JUMP JUMPDEST SWAP2 POP DUP2 SWAP1 POP SWAP3 SWAP2 POP POP JUMP INVALID LOG2 PUSH5 0x6970667358 0x22 SLT KECCAK256 PUSH13 0x8A2BA1DF08822DD0E21833CA8E PUSH27 0xE435AE6A93AAD839E87307BA56BBBCAD864736F6C634300081800 CALLER LOG2 PUSH5 0x6970667358 0x22 SLT KECCAK256 0xF6 OR 0xC3 PUSH11 0x3ADEFD39D5ED28436F441D PC SWAP13 EXTCODEHASH MSIZE 0xB3 0xAC 0x22 PUSH9 0x2B62DD5B3350637F49 PUSH5 0x736F6C6343 STOP ADDMOD XOR STOP CALLER "
		},
		"gasEstimates": {
			"creation": {
				"codeDepositCost": "1129000",
				"executionCost": "1172",
				"totalCost": "1130172"
			},
			"external": {
				"callSayHello(uint256,uint256)": "infinite",
				"callSetHello(uint256,string,uint256)": "infinite",
				"createDemo()": "infinite",
				"getDemo(uint256)": "infinite"
			}
		},
		"methodIdentifiers": {
			"callSayHello(uint256,uint256)": "ebb7e7fe",
			"callSetHello(uint256,string,uint256)": "0f9d36c8",
			"createDemo()": "d03eef28",
			"getDemo(uint256)": "d7c30a99"
		}
	},
	"abi": [
		{
			"inputs": [
				{
					"internalType": "uint256",
					"name": "_index",
					"type": "uint256"
				},
				{
					"internalType": "uint256",
					"name": "_id",
					"type": "uint256"
				}
			],
			"name": "callSayHello",
			"outputs": [
				{
					"internalType": "string",
					"name": "",
					"type": "string"
				}
			],
			"stateMutability": "view",
			"type": "function"
		},
		{
			"inputs": [
				{
					"internalType": "uint256",
					"name": "_index",
					"type": "uint256"
				},
				{
					"internalType": "string",
					"name": "str",
					"type": "string"
				},
				{
					"internalType": "uint256",
					"name": "_id",
					"type": "uint256"
				}
			],
			"name": "callSetHello",
			"outputs": [],
			"stateMutability": "nonpayable",
			"type": "function"
		},
		{
			"inputs": [],
			"name": "createDemo",
			"outputs": [],
			"stateMutability": "nonpayable",
			"type": "function"
		},
		{
			"inputs": [
				{
					"internalType": "uint256",
					"name": "_id",
					"type": "uint256"
				}
			],
			"name": "getDemo",
			"outputs": [
				{
					"internalType": "contract Demo",
					"name": "",
					"type": "address"
				}
			],
			"stateMutability": "view",
			"type": "function"
		}
	]
}